ARM Linker, 4.1 [Build 894] [Standard]

==============================================================================

Section Cross References

    main.o(i.AxisHome) refers to main.o(i.AxisMoveRel) for AxisMoveRel
    main.o(i.AxisHome) refers to main.o(.data) for .data
    main.o(i.AxisHome) refers to main.o(.bss) for .bss
    main.o(i.AxisMoveAbs) refers to stm32f4xx_gpio.o(i.GPIO_ReadInputDataBit) for GPIO_ReadInputDataBit
    main.o(i.AxisMoveAbs) refers to stm32f4xx_gpio.o(i.GPIO_ResetBits) for GPIO_ResetBits
    main.o(i.AxisMoveAbs) refers to stm32f4xx_gpio.o(i.GPIO_SetBits) for GPIO_SetBits
    main.o(i.AxisMoveAbs) refers to main.o(i.sqrt) for sqrt
    main.o(i.AxisMoveAbs) refers to dfltui.o(.text) for __aeabi_ui2d
    main.o(i.AxisMoveAbs) refers to dmul.o(.text) for __aeabi_dmul
    main.o(i.AxisMoveAbs) refers to ddiv.o(.text) for __aeabi_ddiv
    main.o(i.AxisMoveAbs) refers to dfixi.o(.text) for __aeabi_d2iz
    main.o(i.AxisMoveAbs) refers to stm32f4xx_tim.o(i.TIM_Cmd) for TIM_Cmd
    main.o(i.AxisMoveAbs) refers to main.o(.bss) for .bss
    main.o(i.AxisMoveAbs) refers to main.o(.data) for .data
    main.o(i.AxisMoveRel) refers to stm32f4xx_gpio.o(i.GPIO_ReadInputDataBit) for GPIO_ReadInputDataBit
    main.o(i.AxisMoveRel) refers to stm32f4xx_gpio.o(i.GPIO_ResetBits) for GPIO_ResetBits
    main.o(i.AxisMoveRel) refers to stm32f4xx_gpio.o(i.GPIO_SetBits) for GPIO_SetBits
    main.o(i.AxisMoveRel) refers to main.o(i.sqrt) for sqrt
==============================================================================

Removing Unused input sections from the image.

    Removing stm32f4xx_it.o(.rev16_text), (4 bytes).
    Removing stm32f4xx_it.o(.revsh_text), (4 bytes).
    Removing main.o(.rev16_text), (4 bytes).
    Removing main.o(.revsh_text), (4 bytes).
    Removing main.o(i.AxisMoveAbs), (688 bytes).
    Removing main.o(i.DisableHomeCapture), (24 bytes).
    Removing main.o(i.fputc), (36 bytes).
    Removing main.o(.bss), (50 bytes).
    Removing main.o(.constdata), (1 bytes).
    Removing main.o(.constdata), (1 bytes).
    Removing main.o(.constdata), (1 bytes).
    Removing main.o(.constdata), (1 bytes).
    Removing main.o(.constdata), (1 bytes).
    Removing main.o(.constdata), (1 bytes).
    Removing main.o(.constdata), (1 bytes).
    Removing main.o(.constdata), (1 bytes).
    Removing main.o(.constdata), (1 bytes).
    Removing main.o(.constdata), (1 bytes).
==============================================================================

Image Symbol Table

    Local Symbols

    Symbol Name                              Value     Ov Type        Size  Object(Section)

    ../../../cmprslib/zerorunl2.c            0x00000000   Number         0  __dczerorl2.o ABSOLUTE
    ../../microlib/fpdiv.c                   0x00000000   Number         0  ddiv.o ABSOLUTE
    ../../microlib/fpepilogue.c              0x00000000   Number         0  depilogue.o ABSOLUTE
    ../../microlib/fpfix.c                   0x00000000   Number         0  dfixi.o ABSOLUTE
    ../../microlib/fpflt.c                   0x00000000   Number         0  dflti.o ABSOLUTE
    ../../microlib/fpflt.c                   0x00000000   Number         0  dfltui.o ABSOLUTE
    ../../microlib/fpmul.c                   0x00000000   Number         0  dmul.o ABSOLUTE
    ../../microlib/init/entry.s              0x00000000   Number         0  entry8.o ABSOLUTE
    ../../microlib/init/entry.s              0x00000000   Number         0  entry7b.o ABSOLUTE
    ../../microlib/init/entry.s              0x00000000   Number         0  entry.o ABSOLUTE
    ../../microlib/init/entry.s              0x00000000   Number         0  entry7a.o ABSOLUTE
    ../../microlib/init/entry.s              0x00000000   Number         0  entry5.o ABSOLUTE
    ../../microlib/init/entry.s              0x00000000   Number         0  entry2.o ABSOLUTE
    ../../microlib/longlong.c                0x00000000   Number         0  llshl.o ABSOLUTE
    ../../microlib/longlong.c                0x00000000   Number         0  llushr.o ABSOLUTE
    ../../microlib/stubs.s                   0x00000000   Number         0  iusefp.o ABSOLUTE
    ..\..\..\Libraries\CMSIS\Device\ST\STM32F4xx\Source\Templates\arm\startup_stm32f4xx.s 0x00000000   Number         0  startup_stm32f4xx.o ABSOLUTE
    ..\..\..\Libraries\STM32F4xx_StdPeriph_Driver\src\misc.c 0x00000000   Number         0  misc.o ABSOLUTE
    ..\..\..\Libraries\STM32F4xx_StdPeriph_Driver\src\stm32f4xx_adc.c 0x00000000   Number         0  stm32f4xx_adc.o ABSOLUTE
    ..\..\..\Libraries\STM32F4xx_StdPeriph_Driver\src\stm32f4xx_can.c 0x00000000   Number         0  stm32f4xx_can.o ABSOLUTE
    ..\..\..\Libraries\STM32F4xx_StdPeriph_Driver\src\stm32f4xx_crc.c 0x00000000   Number         0  stm32f4xx_crc.o ABSOLUTE
    ..\..\..\Libraries\STM32F4xx_StdPeriph_Driver\src\stm32f4xx_cryp.c 0x00000000   Number         0  stm32f4xx_cryp.o ABSOLUTE
    ..\..\..\Libraries\STM32F4xx_StdPeriph_Driver\src\stm32f4xx_cryp_aes.c 0x00000000   Number         0  stm32f4xx_cryp_aes.o ABSOLUTE
    ..\..\..\Libraries\STM32F4xx_StdPeriph_Driver\src\stm32f4xx_cryp_des.c 0x00000000   Number         0  stm32f4xx_cryp_des.o ABSOLUTE
    ..\..\..\Libraries\STM32F4xx_StdPeriph_Driver\src\stm32f4xx_cryp_tdes.c 0x00000000   Number         0  stm32f4xx_cryp_tdes.o ABSOLUTE
    ..\..\..\Libraries\STM32F4xx_StdPeriph_Driver\src\stm32f4xx_dac.c 0x00000000   Number         0  stm32f4xx_dac.o ABSOLUTE
    ..\..\..\Libraries\STM32F4xx_StdPeriph_Driver\src\stm32f4xx_dbgmcu.c 0x00000000   Number         0  stm32f4xx_dbgmcu.o ABSOLUTE
    ..\..\..\Libraries\STM32F4xx_StdPeriph_Driver\src\stm32f4xx_dcmi.c 0x00000000   Number         0  stm32f4xx_dcmi.o ABSOLUTE
    ..\..\..\Libraries\STM32F4xx_StdPeriph_Driver\src\stm32f4xx_dma.c 0x00000000   Number         0  stm32f4xx_dma.o ABSOLUTE
    ..\..\..\Libraries\STM32F4xx_StdPeriph_Driver\src\stm32f4xx_exti.c 0x00000000   Number         0  stm32f4xx_exti.o ABSOLUTE
    ..\..\..\Libraries\STM32F4xx_StdPeriph_Driver\src\stm32f4xx_flash.c 0x00000000   Number         0  stm32f4xx_flash.o ABSOLUTE
    ..\..\..\Libraries\STM32F4xx_StdPeriph_Driver\src\stm32f4xx_fsmc.c 0x00000000   Number         0  stm32f4xx_fsmc.o ABSOLUTE
    ..\..\..\Libraries\STM32F4xx_StdPeriph_Driver\src\stm32f4xx_gpio.c 0x00000000   Number         0  stm32f4xx_gpio.o ABSOLUTE
    ..\..\..\Libraries\STM32F4xx_StdPeriph_Driver\src\stm32f4xx_hash.c 0x00000000   Number         0  stm32f4xx_hash.o ABSOLUTE
    ..\..\..\Libraries\STM32F4xx_StdPeriph_Driver\src\stm32f4xx_hash_md5.c 0x00000000   Number         0  stm32f4xx_hash_md5.o ABSOLUTE
    ..\..\..\Libraries\STM32F4xx_StdPeriph_Driver\src\stm32f4xx_hash_sha1.c 0x00000000   Number         0  stm32f4xx_hash_sha1.o ABSOLUTE
    ..\..\..\Libraries\STM32F4xx_StdPeriph_Driver\src\stm32f4xx_i2c.c 0x00000000   Number         0  stm32f4xx_i2c.o ABSOLUTE
    ..\..\..\Libraries\STM32F4xx_StdPeriph_Driver\src\stm32f4xx_iwdg.c 0x00000000   Number         0  stm32f4xx_iwdg.o ABSOLUTE
    ..\..\..\Libraries\STM32F4xx_StdPeriph_Driver\src\stm32f4xx_pwr.c 0x00000000   Number         0  stm32f4xx_pwr.o ABSOLUTE
    ..\..\..\Libraries\STM32F4xx_StdPeriph_Driver\src\stm32f4xx_rcc.c 0x00000000   Number         0  stm32f4xx_rcc.o ABSOLUTE
    ..\..\..\Libraries\STM32F4xx_StdPeriph_Driver\src\stm32f4xx_rng.c 0x00000000   Number         0  stm32f4xx_rng.o ABSOLUTE
    ..\..\..\Libraries\STM32F4xx_StdPeriph_Driver\src\stm32f4xx_rtc.c 0x00000000   Number         0  stm32f4xx_rtc.o ABSOLUTE
    ..\..\..\Libraries\STM32F4xx_StdPeriph_Driver\src\stm32f4xx_sdio.c 0x00000000   Number         0  stm32f4xx_sdio.o ABSOLUTE
    ..\..\..\Libraries\STM32F4xx_StdPeriph_Driver\src\stm32f4xx_spi.c 0x00000000   Number         0  stm32f4xx_spi.o ABSOLUTE
    ..\..\..\Libraries\STM32F4xx_StdPeriph_Driver\src\stm32f4xx_syscfg.c 0x00000000   Number         0  stm32f4xx_syscfg.o ABSOLUTE
    ..\..\..\Libraries\STM32F4xx_StdPeriph_Driver\src\stm32f4xx_tim.c 0x00000000   Number         0  stm32f4xx_tim.o ABSOLUTE
    ..\..\..\Libraries\STM32F4xx_StdPeriph_Driver\src\stm32f4xx_usart.c 0x00000000   Number         0  stm32f4xx_usart.o ABSOLUTE
    ..\..\..\Libraries\STM32F4xx_StdPeriph_Driver\src\stm32f4xx_wwdg.c 0x00000000   Number         0  stm32f4xx_wwdg.o ABSOLUTE
    ..\..\..\Utilities\STM32_EVAL\STM3240_41_G_EVAL\stm324xg_eval.c 0x00000000   Number         0  stm324xg_eval.o ABSOLUTE
    ..\..\..\Utilities\STM32_EVAL\STM3240_41_G_EVAL\stm324xg_eval_fsmc_sram.c 0x00000000   Number         0  stm324xg_eval_fsmc_sram.o ABSOLUTE
    ..\..\..\Utilities\STM32_EVAL\STM3240_41_G_EVAL\stm324xg_eval_ioe.c 0x00000000   Number         0  stm324xg_eval_ioe.o ABSOLUTE
    ..\..\..\Utilities\STM32_EVAL\STM3240_41_G_EVAL\stm324xg_eval_lcd.c 0x00000000   Number         0  stm324xg_eval_lcd.o ABSOLUTE
    ..\\..\\..\\Libraries\\STM32F4xx_StdPeriph_Driver\\src\\misc.c 0x00000000   Number         0  misc.o ABSOLUTE
    ..\\..\\..\\Libraries\\STM32F4xx_StdPeriph_Driver\\src\\stm32f4xx_adc.c 0x00000000   Number         0  stm32f4xx_adc.o ABSOLUTE
    ..\\..\\..\\Libraries\\STM32F4xx_StdPeriph_Driver\\src\\stm32f4xx_can.c 0x00000000   Number         0  stm32f4xx_can.o ABSOLUTE
    ..\\..\\..\\Libraries\\STM32F4xx_StdPeriph_Driver\\src\\stm32f4xx_crc.c 0x00000000   Number         0  stm32f4xx_crc.o ABSOLUTE
    ..\\..\\..\\Libraries\\STM32F4xx_StdPeriph_Driver\\src\\stm32f4xx_cryp.c 0x00000000   Number         0  stm32f4xx_cryp.o ABSOLUTE
    ..\\..\\..\\Libraries\\STM32F4xx_StdPeriph_Driver\\src\\stm32f4xx_cryp_aes.c 0x00000000   Number         0  stm32f4xx_cryp_aes.o ABSOLUTE
    ..\\..\\..\\Libraries\\STM32F4xx_StdPeriph_Driver\\src\\stm32f4xx_cryp_des.c 0x00000000   Number         0  stm32f4xx_cryp_des.o ABSOLUTE
    ..\\..\\..\\Libraries\\STM32F4xx_StdPeriph_Driver\\src\\stm32f4xx_cryp_tdes.c 0x00000000   Number         0  stm32f4xx_cryp_tdes.o ABSOLUTE
    ..\\..\\..\\Libraries\\STM32F4xx_StdPeriph_Driver\\src\\stm32f4xx_dac.c 0x00000000   Number         0  stm32f4xx_dac.o ABSOLUTE
    ..\\..\\..\\Libraries\\STM32F4xx_StdPeriph_Driver\\src\\stm32f4xx_dbgmcu.c 0x00000000   Number         0  stm32f4xx_dbgmcu.o ABSOLUTE
    ..\\..\\..\\Libraries\\STM32F4xx_StdPeriph_Driver\\src\\stm32f4xx_dcmi.c 0x00000000   Number         0  stm32f4xx_dcmi.o ABSOLUTE
    ..\\..\\..\\Libraries\\STM32F4xx_StdPeriph_Driver\\src\\stm32f4xx_dma.c 0x00000000   Number         0  stm32f4xx_dma.o ABSOLUTE
    ..\\..\\..\\Libraries\\STM32F4xx_StdPeriph_Driver\\src\\stm32f4xx_exti.c 0x00000000   Number         0  stm32f4xx_exti.o ABSOLUTE
    ..\\..\\..\\Libraries\\STM32F4xx_StdPeriph_Driver\\src\\stm32f4xx_flash.c 0x00000000   Number         0  stm32f4xx_flash.o ABSOLUTE
    ..\\..\\..\\Libraries\\STM32F4xx_StdPeriph_Driver\\src\\stm32f4xx_fsmc.c 0x00000000   Number         0  stm32f4xx_fsmc.o ABSOLUTE
    ..\\..\\..\\Libraries\\STM32F4xx_StdPeriph_Driver\\src\\stm32f4xx_gpio.c 0x00000000   Number         0  stm32f4xx_gpio.o ABSOLUTE
    ..\\..\\..\\Libraries\\STM32F4xx_StdPeriph_Driver\\src\\stm32f4xx_hash.c 0x00000000   Number         0  stm32f4xx_hash.o ABSOLUTE
    ..\\..\\..\\Libraries\\STM32F4xx_StdPeriph_Driver\\src\\stm32f4xx_hash_md5.c 0x00000000   Number         0  stm32f4xx_hash_md5.o ABSOLUTE
    ..\\..\\..\\Libraries\\STM32F4xx_StdPeriph_Driver\\src\\stm32f4xx_hash_sha1.c 0x00000000   Number         0  stm32f4xx_hash_sha1.o ABSOLUTE
    ..\\..\\..\\Libraries\\STM32F4xx_StdPeriph_Driver\\src\\stm32f4xx_i2c.c 0x00000000   Number         0  stm32f4xx_i2c.o ABSOLUTE
    ..\\..\\..\\Libraries\\STM32F4xx_StdPeriph_Driver\\src\\stm32f4xx_iwdg.c 0x00000000   Number         0  stm32f4xx_iwdg.o ABSOLUTE
    ..\\..\\..\\Libraries\\STM32F4xx_StdPeriph_Driver\\src\\stm32f4xx_pwr.c 0x00000000   Number         0  stm32f4xx_pwr.o ABSOLUTE
    ..\\..\\..\\Libraries\\STM32F4xx_StdPeriph_Driver\\src\\stm32f4xx_rcc.c 0x00000000   Number         0  stm32f4xx_rcc.o ABSOLUTE
    ..\\..\\..\\Libraries\\STM32F4xx_StdPeriph_Driver\\src\\stm32f4xx_rng.c 0x00000000   Number         0  stm32f4xx_rng.o ABSOLUTE
    ..\\..\\..\\Libraries\\STM32F4xx_StdPeriph_Driver\\src\\stm32f4xx_rtc.c 0x00000000   Number         0  stm32f4xx_rtc.o ABSOLUTE
    ..\\..\\..\\Libraries\\STM32F4xx_StdPeriph_Driver\\src\\stm32f4xx_sdio.c 0x00000000   Number         0  stm32f4xx_sdio.o ABSOLUTE
    ..\\..\\..\\Libraries\\STM32F4xx_StdPeriph_Driver\\src\\stm32f4xx_spi.c 0x00000000   Number         0  stm32f4xx_spi.o ABSOLUTE
    ..\\..\\..\\Libraries\\STM32F4xx_StdPeriph_Driver\\src\\stm32f4xx_syscfg.c 0x00000000   Number         0  stm32f4xx_syscfg.o ABSOLUTE
    ..\\..\\..\\Libraries\\STM32F4xx_StdPeriph_Driver\\src\\stm32f4xx_tim.c 0x00000000   Number         0  stm32f4xx_tim.o ABSOLUTE
    ..\\..\\..\\Libraries\\STM32F4xx_StdPeriph_Driver\\src\\stm32f4xx_usart.c 0x00000000   Number         0  stm32f4xx_usart.o ABSOLUTE
    ..\\..\\..\\Libraries\\STM32F4xx_StdPeriph_Driver\\src\\stm32f4xx_wwdg.c 0x00000000   Number         0  stm32f4xx_wwdg.o ABSOLUTE
    ..\\..\\..\\Utilities\\STM32_EVAL\\STM3240_41_G_EVAL\\stm324xg_eval.c 0x00000000   Number         0  stm324xg_eval.o ABSOLUTE
    ..\\..\\..\\Utilities\\STM32_EVAL\\STM3240_41_G_EVAL\\stm324xg_eval_fsmc_sram.c 0x00000000   Number         0  stm324xg_eval_fsmc_sram.o ABSOLUTE
    ..\\..\\..\\Utilities\\STM32_EVAL\\STM3240_41_G_EVAL\\stm324xg_eval_ioe.c 0x00000000   Number         0  stm324xg_eval_ioe.o ABSOLUTE
    ..\\..\\..\\Utilities\\STM32_EVAL\\STM3240_41_G_EVAL\\stm324xg_eval_lcd.c 0x00000000   Number         0  stm324xg_eval_lcd.o ABSOLUTE
    ..\\main.c                               0x00000000   Number         0  main.o ABSOLUTE
    ..\\stm32f4xx_it.c                       0x00000000   Number         0  stm32f4xx_it.o ABSOLUTE
    ..\\system_stm32f4xx.c                   0x00000000   Number         0  system_stm32f4xx.o ABSOLUTE
    ..\main.c                                0x00000000   Number         0  main.o ABSOLUTE
    ..\stm32f4xx_it.c                        0x00000000   Number         0  stm32f4xx_it.o ABSOLUTE
    ..\system_stm32f4xx.c                    0x00000000   Number         0  system_stm32f4xx.o ABSOLUTE
    cdcmple.s                                0x00000000   Number         0  cdcmple.o ABSOLUTE
    cdrcmple.s                               0x00000000   Number         0  cdrcmple.o ABSOLUTE
    dc.s                                     0x00000000   Number         0  dc.o ABSOLUTE
    handlers.s                               0x00000000   Number         0  handlers.o ABSOLUTE
    init.s                                   0x00000000   Number         0  init.o ABSOLUTE
    RESET                                    0x08000000   Section      392  startup_stm32f4xx.o(RESET)
    .ARM.Collect$$$$00000000                 0x08000188   Section        0  entry.o(.ARM.Collect$$$$00000000)
    .ARM.Collect$$$$00000001                 0x08000188   Section        4  entry2.o(.ARM.Collect$$$$00000001)
    .ARM.Collect$$$$00000004                 0x0800018c   Section        4  entry5.o(.ARM.Collect$$$$00000004)
    .ARM.Collect$$$$00000008                 0x08000190   Section        0  entry7b.o(.ARM.Collect$$$$00000008)
    .ARM.Collect$$$$00000009                 0x08000190   Section        8  entry8.o(.ARM.Collect$$$$00000009)
    .ARM.Collect$$$$00002712                 0x08000198   Section        4  entry2.o(.ARM.Collect$$$$00002712)
    __lit__00000000                          0x08000198   Data           4  entry2.o(.ARM.Collect$$$$00002712)
    .text                                    0x0800019c   Section       36  startup_stm32f4xx.o(.text)
    $v0                                      0x0800019c   Number         0  startup_stm32f4xx.o(.text)
    .text                                    0x080001c0   Section        0  dmul.o(.text)
    .text                                    0x080002a0   Section        0  ddiv.o(.text)
    .text                                    0x0800037e   Section        0  dfltui.o(.text)
    .text                                    0x08000398   Section        0  dfixi.o(.text)
    .text                                    0x080003d6   Section        0  llushr.o(.text)
    .text                                    0x080003f6   Section        0  depilogue.o(.text)
    .text                                    0x080003f6   Section        0  iusefp.o(.text)
    .text                                    0x080004b4   Section       36  init.o(.text)
    .text                                    0x080004d8   Section        0  llshl.o(.text)
    .text                                    0x080004f6   Section        0  __dczerorl2.o(.text)
    i.AxisHome                               0x08000554   Section        0  main.o(i.AxisHome)
    i.AxisMoveRel                            0x08000680   Section        0  main.o(i.AxisMoveRel)
    i.BusFault_Handler                       0x08000924   Section        0  stm32f4xx_it.o(i.BusFault_Handler)
    i.DebugMon_Handler                       0x08000926   Section        0  stm32f4xx_it.o(i.DebugMon_Handler)
    i.EXTI0_IRQHandler                       0x08000928   Section        0  main.o(i.EXTI0_IRQHandler)
    i.EXTI1_IRQHandler                       0x08000970   Section        0  main.o(i.EXTI1_IRQHandler)
    i.EXTI2_IRQHandler                       0x080009b8   Section        0  main.o(i.EXTI2_IRQHandler)
    i.EXTI3_IRQHandler                       0x08000a00   Section        0  main.o(i.EXTI3_IRQHandler)
    i.EXTILine_Config                        0x08000a48   Section        0  main.o(i.EXTILine_Config)
    i.EXTI_ClearITPendingBit                 0x08000aa4   Section        0  stm32f4xx_exti.o(i.EXTI_ClearITPendingBit)
    i.EXTI_GetITStatus                       0x08000ab0   Section        0  stm32f4xx_exti.o(i.EXTI_GetITStatus)
    i.EXTI_Init                              0x08000ad0   Section        0  stm32f4xx_exti.o(i.EXTI_Init)
    i.EnableHomeCapture                      0x08000b40   Section        0  main.o(i.EnableHomeCapture)
    i.GPIO_Init                              0x08000b58   Section        0  stm32f4xx_gpio.o(i.GPIO_Init)
    i.GPIO_PinAFConfig                       0x08000bd2   Section        0  stm32f4xx_gpio.o(i.GPIO_PinAFConfig)
    i.GPIO_ReadInputDataBit                  0x08000bf2   Section        0  stm32f4xx_gpio.o(i.GPIO_ReadInputDataBit)
    i.GPIO_ReadOutputDataBit                 0x08000c00   Section        0  stm32f4xx_gpio.o(i.GPIO_ReadOutputDataBit)
    i.GPIO_ResetBits                         0x08000c0e   Section        0  stm32f4xx_gpio.o(i.GPIO_ResetBits)
    i.GPIO_SetBits                           0x08000c12   Section        0  stm32f4xx_gpio.o(i.GPIO_SetBits)
    i.HardFault_Handler                      0x08000c16   Section        0  stm32f4xx_it.o(i.HardFault_Handler)
    i.LimitDetect                            0x08000c18   Section        0  main.o(i.LimitDetect)
    i.MemManage_Handler                      0x08000cb4   Section        0  stm32f4xx_it.o(i.MemManage_Handler)
    i.NMI_Handler                            0x08000cb6   Section        0  stm32f4xx_it.o(i.NMI_Handler)
    i.NVIC_Configuration                     0x08000cb8   Section        0  main.o(i.NVIC_Configuration)
    i.NVIC_Init                              0x08000d48   Section        0  misc.o(i.NVIC_Init)
    i.NVIC_PriorityGroupConfig               0x08000db0   Section        0  misc.o(i.NVIC_PriorityGroupConfig)
    i.PendSV_Handler                         0x08000dc4   Section        0  stm32f4xx_it.o(i.PendSV_Handler)
    i.RCC_AHB1PeriphClockCmd                 0x08000dc8   Section        0  stm32f4xx_rcc.o(i.RCC_AHB1PeriphClockCmd)
    i.RCC_APB1PeriphClockCmd                 0x08000de0   Section        0  stm32f4xx_rcc.o(i.RCC_APB1PeriphClockCmd)
    i.RCC_APB2PeriphClockCmd                 0x08000df8   Section        0  stm32f4xx_rcc.o(i.RCC_APB2PeriphClockCmd)
    i.RCC_GetClocksFreq                      0x08000e10   Section        0  stm32f4xx_rcc.o(i.RCC_GetClocksFreq)
    i.SVC_Handler                            0x08000ea8   Section        0  stm32f4xx_it.o(i.SVC_Handler)
    i.SYSCFG_EXTILineConfig                  0x08000eac   Section        0  stm32f4xx_syscfg.o(i.SYSCFG_EXTILineConfig)
    i.SetSysClock                            0x08000ed4   Section        0  system_stm32f4xx.o(i.SetSysClock)
    SetSysClock                              0x08000ed5   Thumb Code   140  system_stm32f4xx.o(i.SetSysClock)
    i.SysTick_Handler                        0x08000f70   Section        0  stm32f4xx_it.o(i.SysTick_Handler)
    i.SystemInit                             0x08000f74   Section        0  system_stm32f4xx.o(i.SystemInit)
    i.TIM2_IRQHandler                        0x08000fd0   Section        0  main.o(i.TIM2_IRQHandler)
    i.TIM3_IRQHandler                        0x080012c8   Section        0  main.o(i.TIM3_IRQHandler)
    i.TIM4_IRQHandler                        0x080015cc   Section        0  main.o(i.TIM4_IRQHandler)
    i.TIM5_IRQHandler                        0x080018d8   Section        0  main.o(i.TIM5_IRQHandler)
    i.TIM_ClearFlag                          0x08001be4   Section        0  stm32f4xx_tim.o(i.TIM_ClearFlag)
    i.TIM_ClearITPendingBit                  0x08001bea   Section        0  stm32f4xx_tim.o(i.TIM_ClearITPendingBit)
    i.TIM_Cmd                                0x08001bf0   Section        0  stm32f4xx_tim.o(i.TIM_Cmd)
    i.TIM_GetITStatus                        0x08001c04   Section        0  stm32f4xx_tim.o(i.TIM_GetITStatus)
    i.TIM_ITConfig                           0x08001c1c   Section        0  stm32f4xx_tim.o(i.TIM_ITConfig)
    i.TIM_OC1Init                            0x08001c2c   Section        0  stm32f4xx_tim.o(i.TIM_OC1Init)
    i.TIM_OC1PreloadConfig                   0x08001ca0   Section        0  stm32f4xx_tim.o(i.TIM_OC1PreloadConfig)
    i.TIM_PrescalerConfig                    0x08001cac   Section        0  stm32f4xx_tim.o(i.TIM_PrescalerConfig)
    i.TIM_TimeBaseInit                       0x08001cb4   Section        0  stm32f4xx_tim.o(i.TIM_TimeBaseInit)
    i.Timer_Init                             0x08001d30   Section        0  main.o(i.Timer_Init)
    i.USART2_IRQHandler                      0x08001e54   Section        0  main.o(i.USART2_IRQHandler)
    i.USART_Cmd                              0x08001ebc   Section        0  stm32f4xx_usart.o(i.USART_Cmd)
    i.USART_Configuration                    0x08001ed0   Section        0  main.o(i.USART_Configuration)
    i.USART_GetFlagStatus                    0x08001f68   Section        0  stm32f4xx_usart.o(i.USART_GetFlagStatus)
    i.USART_GetITStatus                      0x08001f76   Section        0  stm32f4xx_usart.o(i.USART_GetITStatus)
    i.USART_ITConfig                         0x08001fb4   Section        0  stm32f4xx_usart.o(i.USART_ITConfig)
    i.USART_Init                             0x08001fe4   Section        0  stm32f4xx_usart.o(i.USART_Init)
    i.USART_ReceiveData                      0x0800209c   Section        0  stm32f4xx_usart.o(i.USART_ReceiveData)
    i.USART_SendData                         0x080020a4   Section        0  stm32f4xx_usart.o(i.USART_SendData)
    i.UsageFault_Handler                     0x080020ac   Section        0  stm32f4xx_it.o(i.UsageFault_Handler)
    i.__scatterload_copy                     0x080020ae   Section       14  handlers.o(i.__scatterload_copy)
    i.__scatterload_null                     0x080020bc   Section        2  handlers.o(i.__scatterload_null)
    i.__scatterload_zeroinit                 0x080020be   Section       14  handlers.o(i.__scatterload_zeroinit)
    i.main                                   0x080020cc   Section        0  main.o(i.main)
    i.sqrt                                   0x08002794   Section        0  main.o(i.sqrt)
    .data                                    0x20000000   Section      460  main.o(.data)
    i                                        0x20000001   Data           1  main.o(.data)
    i                                        0x20000002   Data           1  main.o(.data)
    i                                        0x20000003   Data           1  main.o(.data)
    i                                        0x20000004   Data           1  main.o(.data)
    last_accel_delay                         0x20000008   Data           2  main.o(.data)
    last_accel_delay                         0x2000000a   Data           2  main.o(.data)
    last_accel_delay                         0x2000000c   Data           2  main.o(.data)
    last_accel_delay                         0x2000000e   Data           2  main.o(.data)
    step_count                               0x2000003c   Data           4  main.o(.data)
    rest                                     0x20000040   Data           4  main.o(.data)
    step_count                               0x20000044   Data           4  main.o(.data)
    rest                                     0x20000048   Data           4  main.o(.data)
    step_count                               0x2000004c   Data           4  main.o(.data)
    rest                                     0x20000050   Data           4  main.o(.data)
    step_count                               0x20000054   Data           4  main.o(.data)
    rest                                     0x20000058   Data           4  main.o(.data)
    .data                                    0x200001cc   Section       16  stm32f4xx_rcc.o(.data)
    APBAHBPrescTable                         0x200001cc   Data          16  stm32f4xx_rcc.o(.data)
    .data                                    0x200001dc   Section       20  system_stm32f4xx.o(.data)
    .bss                                     0x200001f0   Section      210  main.o(.bss)
    STACK                                    0x200002c8   Section     1024  startup_stm32f4xx.o(STACK)

    Global Symbols

    Symbol Name                              Value     Ov Type        Size  Object(Section)

    BuildAttributes$$THM_ISAv4$E$P$D$K$B$S$7EM$VFPi3$EXTD16$VFPS$VFMA$PE$A:L22UL41UL21$X:L11$S22US41US21$IEEE1$IW$USESV6$~STKCKD$USESV7$~SHL$OSPACE$ROPI$EBA8$MICROLIB$REQ8$PRES8$EABIv2 0x00000000   Number         0  anon$$obj.o ABSOLUTE
    __ARM_use_no_argv                        0x00000000   Number         0  main.o ABSOLUTE
    _clock_init                               - Undefined Weak Reference
    __Vectors_Size                           0x00000188   Number         0  startup_stm32f4xx.o ABSOLUTE
    __Vectors                                0x08000000   Data           4  startup_stm32f4xx.o(RESET)
    __Vectors_End                            0x08000188   Data           0  startup_stm32f4xx.o(RESET)
    __main                                   0x08000189   Thumb Code     0  entry.o(.ARM.Collect$$$$00000000)
    _main_stk                                0x08000189   Thumb Code     0  entry2.o(.ARM.Collect$$$$00000001)
    _main_scatterload                        0x0800018d   Thumb Code     0  entry5.o(.ARM.Collect$$$$00000004)
    __main_after_scatterload                 0x08000191   Thumb Code     0  entry5.o(.ARM.Collect$$$$00000004)
    _main_clock                              0x08000191   Thumb Code     0  entry7b.o(.ARM.Collect$$$$00000008)
    _main_init                               0x08000191   Thumb Code     0  entry8.o(.ARM.Collect$$$$00000009)
    Reset_Handler                            0x0800019d   Thumb Code     8  startup_stm32f4xx.o(.text)
    ADC_IRQHandler                           0x080001b7   Thumb Code     0  startup_stm32f4xx.o(.text)
    CAN1_RX0_IRQHandler                      0x080001b7   Thumb Code     0  startup_stm32f4xx.o(.text)
    CAN1_RX1_IRQHandler                      0x080001b7   Thumb Code     0  startup_stm32f4xx.o(.text)
    CAN1_SCE_IRQHandler                      0x080001b7   Thumb Code     0  startup_stm32f4xx.o(.text)
    CAN1_TX_IRQHandler                       0x080001b7   Thumb Code     0  startup_stm32f4xx.o(.text)
    CAN2_RX0_IRQHandler                      0x080001b7   Thumb Code     0  startup_stm32f4xx.o(.text)
    CAN2_RX1_IRQHandler                      0x080001b7   Thumb Code     0  startup_stm32f4xx.o(.text)
    CAN2_SCE_IRQHandler                      0x080001b7   Thumb Code     0  startup_stm32f4xx.o(.text)
    CAN2_TX_IRQHandler                       0x080001b7   Thumb Code     0  startup_stm32f4xx.o(.text)
    CRYP_IRQHandler                          0x080001b7   Thumb Code     0  startup_stm32f4xx.o(.text)
    DCMI_IRQHandler                          0x080001b7   Thumb Code     0  startup_stm32f4xx.o(.text)
    DMA1_Stream0_IRQHandler                  0x080001b7   Thumb Code     0  startup_stm32f4xx.o(.text)
    DMA1_Stream1_IRQHandler                  0x080001b7   Thumb Code     0  startup_stm32f4xx.o(.text)
    DMA1_Stream2_IRQHandler                  0x080001b7   Thumb Code     0  startup_stm32f4xx.o(.text)
    DMA1_Stream3_IRQHandler                  0x080001b7   Thumb Code     0  startup_stm32f4xx.o(.text)
    DMA1_Stream4_IRQHandler                  0x080001b7   Thumb Code     0  startup_stm32f4xx.o(.text)
    DMA1_Stream5_IRQHandler                  0x080001b7   Thumb Code     0  startup_stm32f4xx.o(.text)
    DMA1_Stream6_IRQHandler                  0x080001b7   Thumb Code     0  startup_stm32f4xx.o(.text)
    DMA1_Stream7_IRQHandler                  0x080001b7   Thumb Code     0  startup_stm32f4xx.o(.text)
    DMA2_Stream0_IRQHandler                  0x080001b7   Thumb Code     0  startup_stm32f4xx.o(.text)
    DMA2_Stream1_IRQHandler                  0x080001b7   Thumb Code     0  startup_stm32f4xx.o(.text)
    DMA2_Stream2_IRQHandler                  0x080001b7   Thumb Code     0  startup_stm32f4xx.o(.text)
    DMA2_Stream3_IRQHandler                  0x080001b7   Thumb Code     0  startup_stm32f4xx.o(.text)
    DMA2_Stream4_IRQHandler                  0x080001b7   Thumb Code     0  startup_stm32f4xx.o(.text)
    DMA2_Stream5_IRQHandler                  0x080001b7   Thumb Code     0  startup_stm32f4xx.o(.text)
    DMA2_Stream6_IRQHandler                  0x080001b7   Thumb Code     0  startup_stm32f4xx.o(.text)
    DMA2_Stream7_IRQHandler                  0x080001b7   Thumb Code     0  startup_stm32f4xx.o(.text)
    ETH_IRQHandler                           0x080001b7   Thumb Code     0  startup_stm32f4xx.o(.text)
    ETH_WKUP_IRQHandler                      0x080001b7   Thumb Code     0  startup_stm32f4xx.o(.text)
    EXTI15_10_IRQHandler                     0x080001b7   Thumb Code     0  startup_stm32f4xx.o(.text)
    EXTI4_IRQHandler                         0x080001b7   Thumb Code     0  startup_stm32f4xx.o(.text)
    EXTI9_5_IRQHandler                       0x080001b7   Thumb Code     0  startup_stm32f4xx.o(.text)
    FLASH_IRQHandler                         0x080001b7   Thumb Code     0  startup_stm32f4xx.o(.text)
    FPU_IRQHandler                           0x080001b7   Thumb Code     0  startup_stm32f4xx.o(.text)
    FSMC_IRQHandler                          0x080001b7   Thumb Code     0  startup_stm32f4xx.o(.text)
    HASH_RNG_IRQHandler                      0x080001b7   Thumb Code     0  startup_stm32f4xx.o(.text)
    I2C1_ER_IRQHandler                       0x080001b7   Thumb Code     0  startup_stm32f4xx.o(.text)
    I2C1_EV_IRQHandler                       0x080001b7   Thumb Code     0  startup_stm32f4xx.o(.text)
    I2C2_ER_IRQHandler                       0x080001b7   Thumb Code     0  startup_stm32f4xx.o(.text)
    I2C2_EV_IRQHandler                       0x080001b7   Thumb Code     0  startup_stm32f4xx.o(.text)
    I2C3_ER_IRQHandler                       0x080001b7   Thumb Code     0  startup_stm32f4xx.o(.text)
    I2C3_EV_IRQHandler                       0x080001b7   Thumb Code     0  startup_stm32f4xx.o(.text)
    OTG_FS_IRQHandler                        0x080001b7   Thumb Code     0  startup_stm32f4xx.o(.text)
    OTG_FS_WKUP_IRQHandler                   0x080001b7   Thumb Code     0  startup_stm32f4xx.o(.text)
    OTG_HS_EP1_IN_IRQHandler                 0x080001b7   Thumb Code     0  startup_stm32f4xx.o(.text)
    OTG_HS_EP1_OUT_IRQHandler                0x080001b7   Thumb Code     0  startup_stm32f4xx.o(.text)
    OTG_HS_IRQHandler                        0x080001b7   Thumb Code     0  startup_stm32f4xx.o(.text)
    OTG_HS_WKUP_IRQHandler                   0x080001b7   Thumb Code     0  startup_stm32f4xx.o(.text)
    PVD_IRQHandler                           0x080001b7   Thumb Code     0  startup_stm32f4xx.o(.text)
    RCC_IRQHandler                           0x080001b7   Thumb Code     0  startup_stm32f4xx.o(.text)
    RTC_Alarm_IRQHandler                     0x080001b7   Thumb Code     0  startup_stm32f4xx.o(.text)
    RTC_WKUP_IRQHandler                      0x080001b7   Thumb Code     0  startup_stm32f4xx.o(.text)
    SDIO_IRQHandler                          0x080001b7   Thumb Code     0  startup_stm32f4xx.o(.text)
    SPI1_IRQHandler                          0x080001b7   Thumb Code     0  startup_stm32f4xx.o(.text)
    SPI2_IRQHandler                          0x080001b7   Thumb Code     0  startup_stm32f4xx.o(.text)
    SPI3_IRQHandler                          0x080001b7   Thumb Code     0  startup_stm32f4xx.o(.text)
    TAMP_STAMP_IRQHandler                    0x080001b7   Thumb Code     0  startup_stm32f4xx.o(.text)
    TIM1_BRK_TIM9_IRQHandler                 0x080001b7   Thumb Code     0  startup_stm32f4xx.o(.text)
    TIM1_CC_IRQHandler                       0x080001b7   Thumb Code     0  startup_stm32f4xx.o(.text)
    TIM1_TRG_COM_TIM11_IRQHandler            0x080001b7   Thumb Code     0  startup_stm32f4xx.o(.text)
    TIM1_UP_TIM10_IRQHandler                 0x080001b7   Thumb Code     0  startup_stm32f4xx.o(.text)
    TIM6_DAC_IRQHandler                      0x080001b7   Thumb Code     0  startup_stm32f4xx.o(.text)
    TIM7_IRQHandler                          0x080001b7   Thumb Code     0  startup_stm32f4xx.o(.text)
    TIM8_BRK_TIM12_IRQHandler                0x080001b7   Thumb Code     0  startup_stm32f4xx.o(.text)
    TIM8_CC_IRQHandler                       0x080001b7   Thumb Code     0  startup_stm32f4xx.o(.text)
    TIM8_TRG_COM_TIM14_IRQHandler            0x080001b7   Thumb Code     0  startup_stm32f4xx.o(.text)
    TIM8_UP_TIM13_IRQHandler                 0x080001b7   Thumb Code     0  startup_stm32f4xx.o(.text)
    UART4_IRQHandler                         0x080001b7   Thumb Code     0  startup_stm32f4xx.o(.text)
    UART5_IRQHandler                         0x080001b7   Thumb Code     0  startup_stm32f4xx.o(.text)
    USART1_IRQHandler                        0x080001b7   Thumb Code     0  startup_stm32f4xx.o(.text)
    USART3_IRQHandler                        0x080001b7   Thumb Code     0  startup_stm32f4xx.o(.text)
    USART6_IRQHandler                        0x080001b7   Thumb Code     0  startup_stm32f4xx.o(.text)
    WWDG_IRQHandler                          0x080001b7   Thumb Code     0  startup_stm32f4xx.o(.text)
    __aeabi_dmul                             0x080001c1   Thumb Code   224  dmul.o(.text)
    __aeabi_ddiv                             0x080002a1   Thumb Code   222  ddiv.o(.text)
    __aeabi_ui2d                             0x0800037f   Thumb Code    26  dfltui.o(.text)
    __aeabi_d2iz                             0x08000399   Thumb Code    62  dfixi.o(.text)
    __aeabi_llsr                             0x080003d7   Thumb Code    32  llushr.o(.text)
    _ll_ushift_r                             0x080003d7   Thumb Code     0  llushr.o(.text)
    __I$use$fp                               0x080003f7   Thumb Code     0  iusefp.o(.text)
    _double_round                            0x080003f7   Thumb Code    26  depilogue.o(.text)
    _double_epilogue                         0x08000411   Thumb Code   164  depilogue.o(.text)
    __scatterload                            0x080004b5   Thumb Code    28  init.o(.text)
    __scatterload_rt2                        0x080004b5   Thumb Code     0  init.o(.text)
    __aeabi_llsl                             0x080004d9   Thumb Code    30  llshl.o(.text)
    _ll_shift_l                              0x080004d9   Thumb Code     0  llshl.o(.text)
    __decompress                             0x080004f7   Thumb Code     0  __dczerorl2.o(.text)
    __decompress1                            0x080004f7   Thumb Code    92  __dczerorl2.o(.text)
    AxisHome                                 0x08000555   Thumb Code   282  main.o(i.AxisHome)
    AxisMoveRel                              0x08000681   Thumb Code   622  main.o(i.AxisMoveRel)
    BusFault_Handler                         0x08000925   Thumb Code     2  stm32f4xx_it.o(i.BusFault_Handler)
    DebugMon_Handler                         0x08000927   Thumb Code     2  stm32f4xx_it.o(i.DebugMon_Handler)
    EXTI0_IRQHandler                         0x08000929   Thumb Code    58  main.o(i.EXTI0_IRQHandler)
    EXTI1_IRQHandler                         0x08000971   Thumb Code    58  main.o(i.EXTI1_IRQHandler)
    EXTI2_IRQHandler                         0x080009b9   Thumb Code    58  main.o(i.EXTI2_IRQHandler)
    EXTI3_IRQHandler                         0x08000a01   Thumb Code    58  main.o(i.EXTI3_IRQHandler)
    EXTILine_Config                          0x08000a49   Thumb Code    88  main.o(i.EXTILine_Config)
    EXTI_ClearITPendingBit                   0x08000aa5   Thumb Code     6  stm32f4xx_exti.o(i.EXTI_ClearITPendingBit)
    EXTI_GetITStatus                         0x08000ab1   Thumb Code    28  stm32f4xx_exti.o(i.EXTI_GetITStatus)
    EXTI_Init                                0x08000ad1   Thumb Code   108  stm32f4xx_exti.o(i.EXTI_Init)
    EnableHomeCapture                        0x08000b41   Thumb Code    16  main.o(i.EnableHomeCapture)
    GPIO_Init                                0x08000b59   Thumb Code   122  stm32f4xx_gpio.o(i.GPIO_Init)
    GPIO_PinAFConfig                         0x08000bd3   Thumb Code    32  stm32f4xx_gpio.o(i.GPIO_PinAFConfig)
    GPIO_ReadInputDataBit                    0x08000bf3   Thumb Code    14  stm32f4xx_gpio.o(i.GPIO_ReadInputDataBit)
    GPIO_ReadOutputDataBit                   0x08000c01   Thumb Code    14  stm32f4xx_gpio.o(i.GPIO_ReadOutputDataBit)
    GPIO_ResetBits                           0x08000c0f   Thumb Code     4  stm32f4xx_gpio.o(i.GPIO_ResetBits)
    GPIO_SetBits                             0x08000c13   Thumb Code     4  stm32f4xx_gpio.o(i.GPIO_SetBits)
    HardFault_Handler                        0x08000c17   Thumb Code     2  stm32f4xx_it.o(i.HardFault_Handler)
    LimitDetect                              0x08000c19   Thumb Code   152  main.o(i.LimitDetect)
    MemManage_Handler                        0x08000cb5   Thumb Code     2  stm32f4xx_it.o(i.MemManage_Handler)
    NMI_Handler                              0x08000cb7   Thumb Code     2  stm32f4xx_it.o(i.NMI_Handler)
    NVIC_Configuration                       0x08000cb9   Thumb Code   142  main.o(i.NVIC_Configuration)
    NVIC_Init                                0x08000d49   Thumb Code    94  misc.o(i.NVIC_Init)
    NVIC_PriorityGroupConfig                 0x08000db1   Thumb Code    10  misc.o(i.NVIC_PriorityGroupConfig)
    PendSV_Handler                           0x08000dc5   Thumb Code     2  stm32f4xx_it.o(i.PendSV_Handler)
    RCC_AHB1PeriphClockCmd                   0x08000dc9   Thumb Code    18  stm32f4xx_rcc.o(i.RCC_AHB1PeriphClockCmd)
    RCC_APB1PeriphClockCmd                   0x08000de1   Thumb Code    18  stm32f4xx_rcc.o(i.RCC_APB1PeriphClockCmd)
    RCC_APB2PeriphClockCmd                   0x08000df9   Thumb Code    18  stm32f4xx_rcc.o(i.RCC_APB2PeriphClockCmd)
    RCC_GetClocksFreq                        0x08000e11   Thumb Code   138  stm32f4xx_rcc.o(i.RCC_GetClocksFreq)
    SVC_Handler                              0x08000ea9   Thumb Code     2  stm32f4xx_it.o(i.SVC_Handler)
    SYSCFG_EXTILineConfig                    0x08000ead   Thumb Code    34  stm32f4xx_syscfg.o(i.SYSCFG_EXTILineConfig)
    SysTick_Handler                          0x08000f71   Thumb Code     2  stm32f4xx_it.o(i.SysTick_Handler)
    SystemInit                               0x08000f75   Thumb Code    74  system_stm32f4xx.o(i.SystemInit)
    TIM2_IRQHandler                          0x08000fd1   Thumb Code   738  main.o(i.TIM2_IRQHandler)
    TIM3_IRQHandler                          0x080012c9   Thumb Code   746  main.o(i.TIM3_IRQHandler)
    TIM4_IRQHandler                          0x080015cd   Thumb Code   756  main.o(i.TIM4_IRQHandler)
    TIM5_IRQHandler                          0x080018d9   Thumb Code   756  main.o(i.TIM5_IRQHandler)
    TIM_ClearFlag                            0x08001be5   Thumb Code     6  stm32f4xx_tim.o(i.TIM_ClearFlag)
    TIM_ClearITPendingBit                    0x08001beb   Thumb Code     6  stm32f4xx_tim.o(i.TIM_ClearITPendingBit)
    TIM_Cmd                                  0x08001bf1   Thumb Code    20  stm32f4xx_tim.o(i.TIM_Cmd)
    TIM_GetITStatus                          0x08001c05   Thumb Code    24  stm32f4xx_tim.o(i.TIM_GetITStatus)
    TIM_ITConfig                             0x08001c1d   Thumb Code    16  stm32f4xx_tim.o(i.TIM_ITConfig)
    TIM_OC1Init                              0x08001c2d   Thumb Code   106  stm32f4xx_tim.o(i.TIM_OC1Init)
    TIM_OC1PreloadConfig                     0x08001ca1   Thumb Code    12  stm32f4xx_tim.o(i.TIM_OC1PreloadConfig)
    TIM_PrescalerConfig                      0x08001cad   Thumb Code     6  stm32f4xx_tim.o(i.TIM_PrescalerConfig)
    TIM_TimeBaseInit                         0x08001cb5   Thumb Code    96  stm32f4xx_tim.o(i.TIM_TimeBaseInit)
    Timer_Init                               0x08001d31   Thumb Code   270  main.o(i.Timer_Init)
    USART2_IRQHandler                        0x08001e55   Thumb Code    90  main.o(i.USART2_IRQHandler)
    USART_Cmd                                0x08001ebd   Thumb Code    20  stm32f4xx_usart.o(i.USART_Cmd)
    USART_Configuration                      0x08001ed1   Thumb Code   140  main.o(i.USART_Configuration)
    USART_GetFlagStatus                      0x08001f69   Thumb Code    14  stm32f4xx_usart.o(i.USART_GetFlagStatus)
    USART_GetITStatus                        0x08001f77   Thumb Code    62  stm32f4xx_usart.o(i.USART_GetITStatus)
    USART_ITConfig                           0x08001fb5   Thumb Code    48  stm32f4xx_usart.o(i.USART_ITConfig)
    USART_Init                               0x08001fe5   Thumb Code   174  stm32f4xx_usart.o(i.USART_Init)
    USART_ReceiveData                        0x0800209d   Thumb Code     8  stm32f4xx_usart.o(i.USART_ReceiveData)
    USART_SendData                           0x080020a5   Thumb Code     8  stm32f4xx_usart.o(i.USART_SendData)
    UsageFault_Handler                       0x080020ad   Thumb Code     2  stm32f4xx_it.o(i.UsageFault_Handler)
    __scatterload_copy                       0x080020af   Thumb Code    14  handlers.o(i.__scatterload_copy)
    __scatterload_null                       0x080020bd   Thumb Code     2  handlers.o(i.__scatterload_null)
    __scatterload_zeroinit                   0x080020bf   Thumb Code    14  handlers.o(i.__scatterload_zeroinit)
    main                                     0x080020cd   Thumb Code  1714  main.o(i.main)
    sqrt                                     0x08002795   Thumb Code    40  main.o(i.sqrt)
    Region$$Table$$Base                      0x080027bc   Number         0  anon$$obj.o(Region$$Table)
    Region$$Table$$Limit                     0x080027dc   Number         0  anon$$obj.o(Region$$Table)
    addr485                                  0x20000000   Data           1  main.o(.data)
    bDataOK                                  0x20000005   Data           1  main.o(.data)
    RxCounter                                0x20000006   Data           1  main.o(.data)
    TxCounter                                0x20000007   Data           1  main.o(.data)
    LmtSnsPos                                0x20000010   Data           4  main.o(.data)
    LmtSnsNeg                                0x20000014   Data           4  main.o(.data)
    HomeSns                                  0x20000018   Data           4  main.o(.data)
    AxisEXTIPinSource                        0x2000001c   Data           4  main.o(.data)
    bLmtPos                                  0x20000020   Data           4  main.o(.data)
    bLmtNeg                                  0x20000024   Data           4  main.o(.data)
    bStopCmd                                 0x20000028   Data           4  main.o(.data)
    bEmgStopping                             0x2000002c   Data           4  main.o(.data)
    bZeroCapture                             0x20000030   Data           4  main.o(.data)
    ZeroStep                                 0x20000034   Data           4  main.o(.data)
    MotionStatus                             0x20000038   Data           4  main.o(.data)
    AxisPulsePin                             0x2000005c   Data           8  main.o(.data)
    AxisDirPin                               0x20000064   Data           8  main.o(.data)
    LmtPosPin                                0x2000006c   Data           8  main.o(.data)
    LmtNegPin                                0x20000074   Data           8  main.o(.data)
    HomePin                                  0x2000007c   Data           8  main.o(.data)
    AddrPin                                  0x20000084   Data           8  main.o(.data)
    GPIO_InitStructure                       0x2000008c   Data           8  main.o(.data)
    EXTI_InitStructure                       0x20000094   Data           8  main.o(.data)
    steps                                    0x2000009c   Data          16  main.o(.data)
    accel                                    0x200000ac   Data          16  main.o(.data)
    decel                                    0x200000bc   Data          16  main.o(.data)
    speed                                    0x200000cc   Data          16  main.o(.data)
    stpdecel                                 0x200000dc   Data          16  main.o(.data)
    SoftLmtPos                               0x200000ec   Data          16  main.o(.data)
    SoftLmtNeg                               0x200000fc   Data          16  main.o(.data)
    AxisLmtPosPort                           0x2000010c   Data          16  main.o(.data)
    AxisLmtNegPort                           0x2000011c   Data          16  main.o(.data)
    AxisPulsePort                            0x2000012c   Data          16  main.o(.data)
    AxisDirPort                              0x2000013c   Data          16  main.o(.data)
    HomePort                                 0x2000014c   Data          16  main.o(.data)
    AddrPort                                 0x2000015c   Data          16  main.o(.data)
    AxisEXTILine                             0x2000016c   Data          16  main.o(.data)
    ZeroDir                                  0x2000017c   Data          16  main.o(.data)
    ZeroOffset                               0x2000018c   Data          16  main.o(.data)
    ZeroBackDistance                         0x2000019c   Data          16  main.o(.data)
    HomeFastSpeed                            0x200001ac   Data          16  main.o(.data)
    HomeSlowSpeed                            0x200001bc   Data          16  main.o(.data)
    SystemCoreClock                          0x200001dc   Data           4  system_stm32f4xx.o(.data)
    AHBPrescTable                            0x200001e0   Data          16  system_stm32f4xx.o(.data)
    position                                 0x200001f0   Data          16  main.o(.bss)
    HomePos                                  0x20000200   Data          16  main.o(.bss)
    Program1Step                             0x20000210   Data          16  main.o(.bss)
    srd                                      0x20000220   Data          96  main.o(.bss)
    USART_InitStructure                      0x20000280   Data          16  main.o(.bss)
    RxBuffer                                 0x20000290   Data          50  main.o(.bss)
    __initial_sp                             0x200006c8   Data           0  startup_stm32f4xx.o(STACK)



==============================================================================

Memory Map of the image

  Image Entry point : 0x08000189

  Load Region LR_IROM1 (Base: 0x08000000, Size: 0x000029cc, Max: 0x00100000, ABSOLUTE, COMPRESSED[0x00002858])

    Execution Region ER_IROM1 (Base: 0x08000000, Size: 0x000027dc, Max: 0x00100000, ABSOLUTE)

    Base Addr    Size         Type   Attr      Idx    E Section Name        Object

    0x08000000   0x00000188   Data   RO         5161    RESET               startup_stm32f4xx.o
    0x08000188   0x00000000   Code   RO         5166  * .ARM.Collect$$$$00000000  mc_w.l(entry.o)
    0x08000188   0x00000004   Code   RO         5183    .ARM.Collect$$$$00000001  mc_w.l(entry2.o)
    0x0800018c   0x00000004   Code   RO         5186    .ARM.Collect$$$$00000004  mc_w.l(entry5.o)
    0x08000190   0x00000000   Code   RO         5188    .ARM.Collect$$$$00000008  mc_w.l(entry7b.o)
    0x08000190   0x00000008   Code   RO         5189    .ARM.Collect$$$$00000009  mc_w.l(entry8.o)
    0x08000198   0x00000004   Code   RO         5184    .ARM.Collect$$$$00002712  mc_w.l(entry2.o)
    0x0800019c   0x00000024   Code   RO         5162    .text               startup_stm32f4xx.o
    0x080001c0   0x000000e0   Code   RO         5169    .text               mf_w.l(dmul.o)
    0x080002a0   0x000000de   Code   RO         5171    .text               mf_w.l(ddiv.o)
    0x0800037e   0x0000001a   Code   RO         5175    .text               mf_w.l(dfltui.o)
    0x08000398   0x0000003e   Code   RO         5177    .text               mf_w.l(dfixi.o)
    0x080003d6   0x00000020   Code   RO         5190    .text               mc_w.l(llushr.o)
    0x080003f6   0x00000000   Code   RO         5192    .text               mc_w.l(iusefp.o)
    0x080003f6   0x000000be   Code   RO         5193    .text               mf_w.l(depilogue.o)
    0x080004b4   0x00000024   Code   RO         5195    .text               mc_w.l(init.o)
    0x080004d8   0x0000001e   Code   RO         5197    .text               mc_w.l(llshl.o)
    0x080004f6   0x0000005c   Code   RO         5207    .text               mc_w.l(__dczerorl2.o)
    0x08000552   0x00000002   PAD
    0x08000554   0x0000012c   Code   RO          181    i.AxisHome          main.o
    0x08000680   0x000002a4   Code   RO          183    i.AxisMoveRel       main.o
    0x08000924   0x00000002   Code   RO            3    i.BusFault_Handler  stm32f4xx_it.o
    0x08000926   0x00000002   Code   RO            4    i.DebugMon_Handler  stm32f4xx_it.o
    0x08000928   0x00000048   Code   RO          185    i.EXTI0_IRQHandler  main.o
    0x08000970   0x00000048   Code   RO          186    i.EXTI1_IRQHandler  main.o
    0x080009b8   0x00000048   Code   RO          187    i.EXTI2_IRQHandler  main.o
    0x08000a00   0x00000048   Code   RO          188    i.EXTI3_IRQHandler  main.o
    0x08000a48   0x0000005c   Code   RO          189    i.EXTILine_Config   main.o
    0x08000aa4   0x0000000c   Code   RO         2190    i.EXTI_ClearITPendingBit  stm32f4xx_exti.o
    0x08000ab0   0x00000020   Code   RO         2194    i.EXTI_GetITStatus  stm32f4xx_exti.o
    0x08000ad0   0x00000070   Code   RO         2195    i.EXTI_Init         stm32f4xx_exti.o
    0x08000b40   0x00000018   Code   RO          190    i.EnableHomeCapture  main.o
    0x08000b58   0x0000007a   Code   RO         2583    i.GPIO_Init         stm32f4xx_gpio.o
    0x08000bd2   0x00000020   Code   RO         2584    i.GPIO_PinAFConfig  stm32f4xx_gpio.o
    0x08000bf2   0x0000000e   Code   RO         2587    i.GPIO_ReadInputDataBit  stm32f4xx_gpio.o
    0x08000c00   0x0000000e   Code   RO         2589    i.GPIO_ReadOutputDataBit  stm32f4xx_gpio.o
    0x08000c0e   0x00000004   Code   RO         2590    i.GPIO_ResetBits    stm32f4xx_gpio.o
    0x08000c12   0x00000004   Code   RO         2591    i.GPIO_SetBits      stm32f4xx_gpio.o
    0x08000c16   0x00000002   Code   RO            5    i.HardFault_Handler  stm32f4xx_it.o
    0x08000c18   0x0000009c   Code   RO          191    i.LimitDetect       main.o
    0x08000cb4   0x00000002   Code   RO            6    i.MemManage_Handler  stm32f4xx_it.o
    0x08000cb6   0x00000002   Code   RO            7    i.NMI_Handler       stm32f4xx_it.o
    0x08000cb8   0x0000008e   Code   RO          192    i.NVIC_Configuration  main.o
    0x08000d46   0x00000002   PAD
    0x08000d48   0x00000068   Code   RO          999    i.NVIC_Init         misc.o
    0x08000db0   0x00000014   Code   RO         1000    i.NVIC_PriorityGroupConfig  misc.o
    0x08000dc4   0x00000002   Code   RO            8    i.PendSV_Handler    stm32f4xx_it.o
    0x08000dc6   0x00000002   PAD
    0x08000dc8   0x00000018   Code   RO         3205    i.RCC_AHB1PeriphClockCmd  stm32f4xx_rcc.o
    0x08000de0   0x00000018   Code   RO         3214    i.RCC_APB1PeriphClockCmd  stm32f4xx_rcc.o
    0x08000df8   0x00000018   Code   RO         3217    i.RCC_APB2PeriphClockCmd  stm32f4xx_rcc.o
    0x08000e10   0x00000098   Code   RO         3226    i.RCC_GetClocksFreq  stm32f4xx_rcc.o
    0x08000ea8   0x00000002   Code   RO            9    i.SVC_Handler       stm32f4xx_it.o
    0x08000eaa   0x00000002   PAD
    0x08000eac   0x00000028   Code   RO         4274    i.SYSCFG_EXTILineConfig  stm32f4xx_syscfg.o
    0x08000ed4   0x0000009c   Code   RO         5124    i.SetSysClock       system_stm32f4xx.o
    0x08000f70   0x00000002   Code   RO           10    i.SysTick_Handler   stm32f4xx_it.o
    0x08000f72   0x00000002   PAD
    0x08000f74   0x0000005c   Code   RO         5126    i.SystemInit        system_stm32f4xx.o
    0x08000fd0   0x000002f8   Code   RO          193    i.TIM2_IRQHandler   main.o
    0x080012c8   0x00000304   Code   RO          194    i.TIM3_IRQHandler   main.o
    0x080015cc   0x0000030c   Code   RO          195    i.TIM4_IRQHandler   main.o
    0x080018d8   0x0000030c   Code   RO          196    i.TIM5_IRQHandler   main.o
    0x08001be4   0x00000006   Code   RO         4329    i.TIM_ClearFlag     stm32f4xx_tim.o
    0x08001bea   0x00000006   Code   RO         4330    i.TIM_ClearITPendingBit  stm32f4xx_tim.o
    0x08001bf0   0x00000014   Code   RO         4335    i.TIM_Cmd           stm32f4xx_tim.o
    0x08001c04   0x00000018   Code   RO         4356    i.TIM_GetITStatus   stm32f4xx_tim.o
    0x08001c1c   0x00000010   Code   RO         4360    i.TIM_ITConfig      stm32f4xx_tim.o
    0x08001c2c   0x00000074   Code   RO         4364    i.TIM_OC1Init       stm32f4xx_tim.o
    0x08001ca0   0x0000000c   Code   RO         4367    i.TIM_OC1PreloadConfig  stm32f4xx_tim.o
    0x08001cac   0x00000006   Code   RO         4384    i.TIM_PrescalerConfig  stm32f4xx_tim.o
    0x08001cb2   0x00000002   PAD
    0x08001cb4   0x0000007c   Code   RO         4407    i.TIM_TimeBaseInit  stm32f4xx_tim.o
    0x08001d30   0x00000124   Code   RO          197    i.Timer_Init        main.o
    0x08001e54   0x00000068   Code   RO          198    i.USART2_IRQHandler  main.o
    0x08001ebc   0x00000014   Code   RO         4875    i.USART_Cmd         stm32f4xx_usart.o
    0x08001ed0   0x00000098   Code   RO          199    i.USART_Configuration  main.o
    0x08001f68   0x0000000e   Code   RO         4878    i.USART_GetFlagStatus  stm32f4xx_usart.o
    0x08001f76   0x0000003e   Code   RO         4879    i.USART_GetITStatus  stm32f4xx_usart.o
    0x08001fb4   0x00000030   Code   RO         4881    i.USART_ITConfig    stm32f4xx_usart.o
    0x08001fe4   0x000000b8   Code   RO         4882    i.USART_Init        stm32f4xx_usart.o
    0x0800209c   0x00000008   Code   RO         4889    i.USART_ReceiveData  stm32f4xx_usart.o
    0x080020a4   0x00000008   Code   RO         4892    i.USART_SendData    stm32f4xx_usart.o
    0x080020ac   0x00000002   Code   RO           11    i.UsageFault_Handler  stm32f4xx_it.o
    0x080020ae   0x0000000e   Code   RO         5201    i.__scatterload_copy  mc_w.l(handlers.o)
    0x080020bc   0x00000002   Code   RO         5202    i.__scatterload_null  mc_w.l(handlers.o)
    0x080020be   0x0000000e   Code   RO         5203    i.__scatterload_zeroinit  mc_w.l(handlers.o)
    0x080020cc   0x000006c8   Code   RO          201    i.main              main.o
    0x08002794   0x00000028   Code   RO          202    i.sqrt              main.o
    0x080027bc   0x00000020   Data   RO         5199    Region$$Table       anon$$obj.o


    Execution Region RW_IRAM1 (Base: 0x20000000, Size: 0x000006c8, Max: 0x00020000, ABSOLUTE, COMPRESSED[0x0000007c])

    Base Addr    Size         Type   Attr      Idx    E Section Name        Object

    0x20000000   0x000001cc   Data   RW          229    .data               main.o
    0x200001cc   0x00000010   Data   RW         3249    .data               stm32f4xx_rcc.o
    0x200001dc   0x00000014   Data   RW         5127    .data               system_stm32f4xx.o
    0x200001f0   0x000000d2   Zero   RW          203    .bss                main.o
    0x200002c2   0x00000006   PAD
    0x200002c8   0x00000400   Zero   RW         5159    STACK               startup_stm32f4xx.o


==============================================================================

Image component sizes


      Code (inc. data)   RO Data    RW Data    ZI Data      Debug   Object Name

      7094        356          0        460        210     234056   main.o
       124         20          0          0          0      16603   misc.o
        36          8        392          0       1024        908   startup_stm32f4xx.o
       156         14          0          0          0       5096   stm32f4xx_exti.o
       190          0          0          0          0      11212   stm32f4xx_gpio.o
        18          0          0          0          0      40542   stm32f4xx_it.o
       224         32          0         16          0      17907   stm32f4xx_rcc.o
        40          6          0          0          0        748   stm32f4xx_syscfg.o
       330         38          0          0          0      28108   stm32f4xx_tim.o
       344         10          0          0          0      12357   stm32f4xx_usart.o
       248         34          0         20          0       1865   system_stm32f4xx.o

    ----------------------------------------------------------------------
      8814        518        424        496       1240     369402   Object Totals
         0          0         32          0          0          0   (incl. Generated)
        10          0          0          0          6          0   (incl. Padding)

    ----------------------------------------------------------------------

      Code (inc. data)   RO Data    RW Data    ZI Data      Debug   Library Member Name

        92          0          0          0          0          0   __dczerorl2.o
         0          0          0          0          0          0   entry.o
         8          4          0          0          0          0   entry2.o
         4          0          0          0          0          0   entry5.o
         0          0          0          0          0          0   entry7b.o
         8          4          0          0          0          0   entry8.o
        30          0          0          0          0          0   handlers.o
        36          8          0          0          0         68   init.o
         0          0          0          0          0          0   iusefp.o
        30          0          0          0          0         68   llshl.o
        32          0          0          0          0         68   llushr.o
       222          0          0          0          0        100   ddiv.o
       190          0          0          0          0        176   depilogue.o
        62          0          0          0          0         80   dfixi.o
        26          0          0          0          0         76   dfltui.o
       224          0          0          0          0         96   dmul.o

    ----------------------------------------------------------------------
       966         16          0          0          0        732   Library Totals
         2          0          0          0          0          0   (incl. Padding)

    ----------------------------------------------------------------------

      Code (inc. data)   RO Data    RW Data    ZI Data      Debug   Library Name

       240         16          0          0          0        204   mc_w.l
       724          0          0          0          0        528   mf_w.l

    ----------------------------------------------------------------------
       966         16          0          0          0        732   Library Totals

    ----------------------------------------------------------------------

==============================================================================


      Code (inc. data)   RO Data    RW Data    ZI Data      Debug   

      9780        534        424        496       1240     364322   Grand Totals
      9780        534        424        124       1240     364322   ELF Image Totals (compressed)
      9780        534        424        124          0          0   ROM Totals

==============================================================================

    Total RO  Size (Code + RO Data)                10204 (   9.96kB)
    Total RW  Size (RW Data + ZI Data)              1736 (   1.70kB)
    Total ROM Size (Code + RO Data + RW Data)      10328 (  10.09kB)

==============================================================================

