ARM Linker, 4.1 [Build 894] [Professional]

==============================================================================

Section Cross References

    main.o(.text) refers to stm32f10x_gpio.o(.text) for GPIO_ReadInputDataBit
    main.o(.text) refers to stm32f10x_tim.o(.text) for TIM_Cmd
    main.o(.text) refers to dfltui.o(.text) for __aeabi_ui2d
    main.o(.text) refers to dmul.o(.text) for __aeabi_dmul
    main.o(.text) refers to ddiv.o(.text) for __aeabi_ddiv
    main.o(.text) refers to dfixi.o(.text) for __aeabi_d2iz
    main.o(.text) refers to ffltui.o(.text) for __aeabi_ui2f
    main.o(.text) refers to fdiv.o(.text) for __aeabi_fdiv
    main.o(.text) refers to fflti.o(.text) for __aeabi_i2f
    main.o(.text) refers to fmul.o(.text) for __aeabi_fmul
    main.o(.text) refers to ffixui.o(.text) for __aeabi_f2uiz
    main.o(.text) refers to main.o(.data) for HomePin
    main.o(.text) refers to main.o(.bss) for srd
    main.o(.text) refers to misc.o(.text) for NVIC_PriorityGroupConfig
    main.o(.text) refers to stm32f10x_exti.o(.text) for EXTI_Init
    main.o(.text) refers to stm32f10x_rcc.o(.text) for RCC_APB1PeriphClockCmd
    main.o(.text) refers to system_stm32f10x.o(.constdata) for SystemFrequency_SysClk
    main.o(.text) refers to stm32f10x_usart.o(.text) for USART_SendData
==============================================================================

Removing Unused input sections from the image.

    Removing stm32f10x_crc.o(.text), (72 bytes).
    Removing stm32f10x_dbgmcu.o(.text), (48 bytes).
    Removing stm32f10x_flash.o(.text), (1312 bytes).
    Removing stm32f10x_spi.o(.text), (772 bytes).
    Removing stm32f10x_can.o(.text), (1944 bytes).
    Removing system_stm32f10x.o(.text), (292 bytes).
    Removing core_cm3.o(.emb_text), (32 bytes).
    Removing startup_stm32f10x_hd.o(HEAP), (0 bytes).

8 unused section(s) (total 4472 bytes) removed from the image.

==============================================================================

Image Symbol Table

    Local Symbols

    Symbol Name                              Value     Ov Type        Size  Object(Section)

    ../../../cmprslib/zerorunl2.c            0x00000000   Number         0  __dczerorl2.o ABSOLUTE
    ../../microlib/fpdiv.c                   0x00000000   Number         0  ddiv.o ABSOLUTE
    ../../microlib/fpdiv.c                   0x00000000   Number         0  fdiv.o ABSOLUTE
    ../../microlib/fpepilogue.c              0x00000000   Number         0  fepilogue.o ABSOLUTE
    ../../microlib/fpepilogue.c              0x00000000   Number         0  depilogue.o ABSOLUTE
    ../../microlib/fpfix.c                   0x00000000   Number         0  dfixi.o ABSOLUTE
    ../../microlib/fpfix.c                   0x00000000   Number         0  ffixui.o ABSOLUTE
    ../../microlib/fpflt.c                   0x00000000   Number         0  fflti.o ABSOLUTE
    ../../microlib/fpflt.c                   0x00000000   Number         0  dfltui.o ABSOLUTE
    ../../microlib/fpflt.c                   0x00000000   Number         0  ffltui.o ABSOLUTE
    ../../microlib/fpmul.c                   0x00000000   Number         0  dmul.o ABSOLUTE
    ../../microlib/fpmul.c                   0x00000000   Number         0  fmul.o ABSOLUTE
    ../../microlib/init/entry.s              0x00000000   Number         0  entry5.o ABSOLUTE
    ../../microlib/init/entry.s              0x00000000   Number         0  entry2.o ABSOLUTE
    ../../microlib/init/entry.s              0x00000000   Number         0  entry.o ABSOLUTE
    ../../microlib/init/entry.s              0x00000000   Number         0  entry8.o ABSOLUTE
    ../../microlib/init/entry.s              0x00000000   Number         0  entry7b.o ABSOLUTE
    ../../microlib/init/entry.s              0x00000000   Number         0  entry7a.o ABSOLUTE
    ../../microlib/longlong.c                0x00000000   Number         0  llshl.o ABSOLUTE
    ../../microlib/longlong.c                0x00000000   Number         0  llushr.o ABSOLUTE
    ../../microlib/stubs.s                   0x00000000   Number         0  iusefp.o ABSOLUTE
    ..\CM3\core_cm3.c                        0x00000000   Number         0  core_cm3.o ABSOLUTE
    ..\CM3\startup\arm\startup_stm32f10x_hd.s 0x00000000   Number         0  startup_stm32f10x_hd.o ABSOLUTE
    ..\CM3\system_stm32f10x.c                0x00000000   Number         0  system_stm32f10x.o ABSOLUTE
    ..\STM32F10x_StdPeriph_Driver\src\misc.c 0x00000000   Number         0  misc.o ABSOLUTE
    ..\STM32F10x_StdPeriph_Driver\src\stm32f10x_can.c 0x00000000   Number         0  stm32f10x_can.o ABSOLUTE
    ..\STM32F10x_StdPeriph_Driver\src\stm32f10x_crc.c 0x00000000   Number         0  stm32f10x_crc.o ABSOLUTE
    ..\STM32F10x_StdPeriph_Driver\src\stm32f10x_dbgmcu.c 0x00000000   Number         0  stm32f10x_dbgmcu.o ABSOLUTE
    ..\STM32F10x_StdPeriph_Driver\src\stm32f10x_exti.c 0x00000000   Number         0  stm32f10x_exti.o ABSOLUTE
    ..\STM32F10x_StdPeriph_Driver\src\stm32f10x_flash.c 0x00000000   Number         0  stm32f10x_flash.o ABSOLUTE
    ..\STM32F10x_StdPeriph_Driver\src\stm32f10x_gpio.c 0x00000000   Number         0  stm32f10x_gpio.o ABSOLUTE
    ..\STM32F10x_StdPeriph_Driver\src\stm32f10x_rcc.c 0x00000000   Number         0  stm32f10x_rcc.o ABSOLUTE
    ..\STM32F10x_StdPeriph_Driver\src\stm32f10x_spi.c 0x00000000   Number         0  stm32f10x_spi.o ABSOLUTE
    ..\STM32F10x_StdPeriph_Driver\src\stm32f10x_tim.c 0x00000000   Number         0  stm32f10x_tim.o ABSOLUTE
    ..\STM32F10x_StdPeriph_Driver\src\stm32f10x_usart.c 0x00000000   Number         0  stm32f10x_usart.o ABSOLUTE
    ..\User\main.c                           0x00000000   Number         0  main.o ABSOLUTE
    ..\User\stm32f10x_it.c                   0x00000000   Number         0  stm32f10x_it.o ABSOLUTE
    ..\\CM3\\core_cm3.c                      0x00000000   Number         0  core_cm3.o ABSOLUTE
    dc.s                                     0x00000000   Number         0  dc.o ABSOLUTE
    handlers.s                               0x00000000   Number         0  handlers.o ABSOLUTE
    init.s                                   0x00000000   Number         0  init.o ABSOLUTE
    RESET                                    0x08000000   Section      304  startup_stm32f10x_hd.o(RESET)
    .ARM.Collect$$$$00000000                 0x08000130   Section        0  entry.o(.ARM.Collect$$$$00000000)
    .ARM.Collect$$$$00000001                 0x08000130   Section        4  entry2.o(.ARM.Collect$$$$00000001)
    .ARM.Collect$$$$00000004                 0x08000134   Section        4  entry5.o(.ARM.Collect$$$$00000004)
    .ARM.Collect$$$$00000008                 0x08000138   Section        0  entry7b.o(.ARM.Collect$$$$00000008)
    .ARM.Collect$$$$00000009                 0x08000138   Section        8  entry8.o(.ARM.Collect$$$$00000009)
    .ARM.Collect$$$$00002712                 0x08000140   Section        4  entry2.o(.ARM.Collect$$$$00002712)
    __lit__00000000                          0x08000140   Data           4  entry2.o(.ARM.Collect$$$$00002712)
    .text                                    0x08000144   Section        0  main.o(.text)
    .text                                    0x080021b0   Section        0  stm32f10x_it.o(.text)
    .text                                    0x080021cc   Section        0  misc.o(.text)
    .text                                    0x080022a8   Section        0  stm32f10x_usart.o(.text)
    .text                                    0x08002620   Section        0  stm32f10x_exti.o(.text)
    .text                                    0x08002744   Section        0  stm32f10x_gpio.o(.text)
    .text                                    0x08002a70   Section        0  stm32f10x_rcc.o(.text)
    .text                                    0x08002e0c   Section        0  stm32f10x_tim.o(.text)
    TI4_Config                               0x0800310f   Thumb Code    70  stm32f10x_tim.o(.text)
    TI3_Config                               0x08003167   Thumb Code    64  stm32f10x_tim.o(.text)
    TI2_Config                               0x080031bd   Thumb Code    84  stm32f10x_tim.o(.text)
    TI1_Config                               0x08003223   Thumb Code    54  stm32f10x_tim.o(.text)
    .text                                    0x08003970   Section       48  startup_stm32f10x_hd.o(.text)
    .text                                    0x080039a0   Section        0  fmul.o(.text)
    .text                                    0x08003a0c   Section        0  fdiv.o(.text)
    .text                                    0x08003a8c   Section        0  dmul.o(.text)
    .text                                    0x08003b6c   Section        0  ddiv.o(.text)
    .text                                    0x08003c4a   Section        0  fflti.o(.text)
    .text                                    0x08003c5c   Section        0  ffltui.o(.text)
    .text                                    0x08003c66   Section        0  dfltui.o(.text)
    .text                                    0x08003c80   Section        0  ffixui.o(.text)
    .text                                    0x08003ca8   Section        0  dfixi.o(.text)
    .text                                    0x08003ce6   Section        0  llushr.o(.text)
    .text                                    0x08003d06   Section        0  fepilogue.o(.text)
    .text                                    0x08003d06   Section        0  iusefp.o(.text)
    .text                                    0x08003d72   Section        0  depilogue.o(.text)
    .text                                    0x08003e30   Section       36  init.o(.text)
    .text                                    0x08003e54   Section        0  llshl.o(.text)
    .text                                    0x08003e72   Section        0  __dczerorl2.o(.text)
    i.__scatterload_copy                     0x08003ece   Section       14  handlers.o(i.__scatterload_copy)
    i.__scatterload_null                     0x08003edc   Section        2  handlers.o(i.__scatterload_null)
    i.__scatterload_zeroinit                 0x08003ede   Section       14  handlers.o(i.__scatterload_zeroinit)
    .constdata                               0x08003eec   Section       20  system_stm32f10x.o(.constdata)
    .data                                    0x20000000   Section      473  main.o(.data)
    last_accel_delay                         0x20000198   Data           2  main.o(.data)
    step_count                               0x2000019c   Data           4  main.o(.data)
    rest                                     0x200001a0   Data           4  main.o(.data)
    i                                        0x200001a4   Data           1  main.o(.data)
    last_accel_delay                         0x200001a6   Data           2  main.o(.data)
    step_count                               0x200001a8   Data           4  main.o(.data)
    rest                                     0x200001ac   Data           4  main.o(.data)
    i                                        0x200001b0   Data           1  main.o(.data)
    last_accel_delay                         0x200001b2   Data           2  main.o(.data)
    step_count                               0x200001b4   Data           4  main.o(.data)
    rest                                     0x200001b8   Data           4  main.o(.data)
    i                                        0x200001bc   Data           1  main.o(.data)
    last_accel_delay                         0x200001be   Data           2  main.o(.data)
    step_count                               0x200001c0   Data           4  main.o(.data)
    rest                                     0x200001c4   Data           4  main.o(.data)
    i                                        0x200001c8   Data           1  main.o(.data)
    .data                                    0x200001d9   Section       20  stm32f10x_rcc.o(.data)
    APBAHBPrescTable                         0x200001d9   Data          16  stm32f10x_rcc.o(.data)
    ADCPrescTable                            0x200001e9   Data           4  stm32f10x_rcc.o(.data)
    .bss                                     0x200001f0   Section      156  main.o(.bss)
    STACK                                    0x20000290   Section      512  startup_stm32f10x_hd.o(STACK)

    Global Symbols

    Symbol Name                              Value     Ov Type        Size  Object(Section)

    BuildAttributes$$THM_ISAv4$P$D$K$B$S$PE$A:L22UL41UL21$X:L11$S22US41US21$IEEE1$IW$USESV6$~STKCKD$USESV7$~SHL$OTIME$ROPI$EBA8$MICROLIB$REQ8$PRES8$EABIv2 0x00000000   Number         0  anon$$obj.o ABSOLUTE
    __ARM_use_no_argv                        0x00000000   Number         0  main.o ABSOLUTE
    _clock_init                               - Undefined Weak Reference
    __Vectors_Size                           0x00000130   Number         0  startup_stm32f10x_hd.o ABSOLUTE
    __Vectors                                0x08000000   Data           4  startup_stm32f10x_hd.o(RESET)
    __Vectors_End                            0x08000130   Data           0  startup_stm32f10x_hd.o(RESET)
    __main                                   0x08000131   Thumb Code     0  entry.o(.ARM.Collect$$$$00000000)
    _main_stk                                0x08000131   Thumb Code     0  entry2.o(.ARM.Collect$$$$00000001)
    _main_scatterload                        0x08000135   Thumb Code     0  entry5.o(.ARM.Collect$$$$00000004)
    __main_after_scatterload                 0x08000139   Thumb Code     0  entry5.o(.ARM.Collect$$$$00000004)
    _main_clock                              0x08000139   Thumb Code     0  entry7b.o(.ARM.Collect$$$$00000008)
    _main_init                               0x08000139   Thumb Code     0  entry8.o(.ARM.Collect$$$$00000009)
    EnableHomeCapture                        0x08000145   Thumb Code    18  main.o(.text)
    DisableHomeCapture                       0x08000157   Thumb Code    18  main.o(.text)
    sqrt                                     0x08000169   Thumb Code    52  main.o(.text)
    AxisMoveRel                              0x0800019d   Thumb Code  1086  main.o(.text)
    AxisHome                                 0x080005db   Thumb Code   366  main.o(.text)
    LimitDetect                              0x08000749   Thumb Code   154  main.o(.text)
    NVIC_Configuration                       0x080007e3   Thumb Code   164  main.o(.text)
    EXTILine_Config                          0x08000887   Thumb Code    92  main.o(.text)
    Timer_Init                               0x080008e3   Thumb Code   402  main.o(.text)
    main                                     0x08000a75   Thumb Code   230  main.o(.text)
    fputc                                    0x08000b5b   Thumb Code    32  main.o(.text)
    GPIO_Configuration                       0x08000b7b   Thumb Code     2  main.o(.text)
    AxisMoveAbs                              0x08000b7d   Thumb Code  1128  main.o(.text)
    TIM2_IRQHandler                          0x08000fe5   Thumb Code  1046  main.o(.text)
    TIM3_IRQHandler                          0x080013fb   Thumb Code  1048  main.o(.text)
    TIM4_IRQHandler                          0x08001813   Thumb Code  1088  main.o(.text)
    TIM5_IRQHandler                          0x08001c53   Thumb Code  1088  main.o(.text)
    EXTI0_IRQHandler                         0x08002093   Thumb Code    56  main.o(.text)
    EXTI1_IRQHandler                         0x080020cb   Thumb Code    56  main.o(.text)
    EXTI2_IRQHandler                         0x08002103   Thumb Code    56  main.o(.text)
    EXTI3_IRQHandler                         0x0800213b   Thumb Code    56  main.o(.text)
    NMI_Handler                              0x080021b1   Thumb Code     2  stm32f10x_it.o(.text)
    HardFault_Handler                        0x080021b3   Thumb Code     4  stm32f10x_it.o(.text)
    MemManage_Handler                        0x080021b7   Thumb Code     4  stm32f10x_it.o(.text)
    BusFault_Handler                         0x080021bb   Thumb Code     4  stm32f10x_it.o(.text)
    UsageFault_Handler                       0x080021bf   Thumb Code     4  stm32f10x_it.o(.text)
    SVC_Handler                              0x080021c3   Thumb Code     2  stm32f10x_it.o(.text)
    DebugMon_Handler                         0x080021c5   Thumb Code     2  stm32f10x_it.o(.text)
    PendSV_Handler                           0x080021c7   Thumb Code     2  stm32f10x_it.o(.text)
    SysTick_Handler                          0x080021c9   Thumb Code     2  stm32f10x_it.o(.text)
    NVIC_PriorityGroupConfig                 0x080021cd   Thumb Code    10  misc.o(.text)
    NVIC_Init                                0x080021d7   Thumb Code   102  misc.o(.text)
    NVIC_SetVectorTable                      0x0800223d   Thumb Code    14  misc.o(.text)
    NVIC_SystemLPConfig                      0x0800224b   Thumb Code    34  misc.o(.text)
    SysTick_CLKSourceConfig                  0x0800226d   Thumb Code    40  misc.o(.text)
    USART_DeInit                             0x080022a9   Thumb Code   146  stm32f10x_usart.o(.text)
    USART_Init                               0x0800233b   Thumb Code   150  stm32f10x_usart.o(.text)
    USART_StructInit                         0x080023d1   Thumb Code    24  stm32f10x_usart.o(.text)
    USART_ClockInit                          0x080023e9   Thumb Code    34  stm32f10x_usart.o(.text)
    USART_ClockStructInit                    0x0800240b   Thumb Code    12  stm32f10x_usart.o(.text)
    USART_Cmd                                0x08002417   Thumb Code    24  stm32f10x_usart.o(.text)
    USART_ITConfig                           0x0800242f   Thumb Code    64  stm32f10x_usart.o(.text)
    USART_DMACmd                             0x0800246f   Thumb Code    24  stm32f10x_usart.o(.text)
    USART_SetAddress                         0x08002487   Thumb Code    18  stm32f10x_usart.o(.text)
    USART_WakeUpConfig                       0x08002499   Thumb Code    18  stm32f10x_usart.o(.text)
    USART_ReceiverWakeUpCmd                  0x080024ab   Thumb Code    24  stm32f10x_usart.o(.text)
    USART_LINBreakDetectLengthConfig         0x080024c3   Thumb Code    18  stm32f10x_usart.o(.text)
    USART_LINCmd                             0x080024d5   Thumb Code    24  stm32f10x_usart.o(.text)
    USART_SendData                           0x080024ed   Thumb Code     8  stm32f10x_usart.o(.text)
    USART_ReceiveData                        0x080024f5   Thumb Code    10  stm32f10x_usart.o(.text)
    USART_SendBreak                          0x080024ff   Thumb Code    10  stm32f10x_usart.o(.text)
    USART_SetGuardTime                       0x08002509   Thumb Code    16  stm32f10x_usart.o(.text)
    USART_SetPrescaler                       0x08002519   Thumb Code    16  stm32f10x_usart.o(.text)
    USART_SmartCardCmd                       0x08002529   Thumb Code    24  stm32f10x_usart.o(.text)
    USART_SmartCardNACKCmd                   0x08002541   Thumb Code    24  stm32f10x_usart.o(.text)
    USART_HalfDuplexCmd                      0x08002559   Thumb Code    24  stm32f10x_usart.o(.text)
    USART_IrDAConfig                         0x08002571   Thumb Code    18  stm32f10x_usart.o(.text)
    USART_IrDACmd                            0x08002583   Thumb Code    24  stm32f10x_usart.o(.text)
    USART_GetFlagStatus                      0x0800259b   Thumb Code    18  stm32f10x_usart.o(.text)
    USART_ClearFlag                          0x080025ad   Thumb Code     6  stm32f10x_usart.o(.text)
    USART_GetITStatus                        0x080025b3   Thumb Code    76  stm32f10x_usart.o(.text)
    USART_ClearITPendingBit                  0x080025ff   Thumb Code    20  stm32f10x_usart.o(.text)
    EXTI_DeInit                              0x08002621   Thumb Code    28  stm32f10x_exti.o(.text)
    EXTI_Init                                0x0800263d   Thumb Code   150  stm32f10x_exti.o(.text)
    EXTI_StructInit                          0x080026d3   Thumb Code    16  stm32f10x_exti.o(.text)
    EXTI_GenerateSWInterrupt                 0x080026e3   Thumb Code    16  stm32f10x_exti.o(.text)
    EXTI_GetFlagStatus                       0x080026f3   Thumb Code    22  stm32f10x_exti.o(.text)
    EXTI_ClearFlag                           0x08002709   Thumb Code     8  stm32f10x_exti.o(.text)
    EXTI_GetITStatus                         0x08002711   Thumb Code    34  stm32f10x_exti.o(.text)
    EXTI_ClearITPendingBit                   0x08002733   Thumb Code     8  stm32f10x_exti.o(.text)
    GPIO_DeInit                              0x08002745   Thumb Code   188  stm32f10x_gpio.o(.text)
    GPIO_AFIODeInit                          0x08002801   Thumb Code    20  stm32f10x_gpio.o(.text)
    GPIO_Init                                0x08002815   Thumb Code   274  stm32f10x_gpio.o(.text)
    GPIO_StructInit                          0x08002927   Thumb Code    16  stm32f10x_gpio.o(.text)
    GPIO_ReadInputDataBit                    0x08002937   Thumb Code    18  stm32f10x_gpio.o(.text)
    GPIO_ReadInputData                       0x08002949   Thumb Code     8  stm32f10x_gpio.o(.text)
    GPIO_ReadOutputDataBit                   0x08002951   Thumb Code    18  stm32f10x_gpio.o(.text)
    GPIO_ReadOutputData                      0x08002963   Thumb Code     8  stm32f10x_gpio.o(.text)
    GPIO_SetBits                             0x0800296b   Thumb Code     4  stm32f10x_gpio.o(.text)
    GPIO_ResetBits                           0x0800296f   Thumb Code     4  stm32f10x_gpio.o(.text)
    GPIO_WriteBit                            0x08002973   Thumb Code    10  stm32f10x_gpio.o(.text)
    GPIO_Write                               0x0800297d   Thumb Code     4  stm32f10x_gpio.o(.text)
    GPIO_PinLockConfig                       0x08002981   Thumb Code    18  stm32f10x_gpio.o(.text)
    GPIO_EventOutputConfig                   0x08002993   Thumb Code    26  stm32f10x_gpio.o(.text)
    GPIO_EventOutputCmd                      0x080029ad   Thumb Code     6  stm32f10x_gpio.o(.text)
    GPIO_PinRemapConfig                      0x080029b3   Thumb Code   106  stm32f10x_gpio.o(.text)
    GPIO_EXTILineConfig                      0x08002a1d   Thumb Code    66  stm32f10x_gpio.o(.text)
    RCC_DeInit                               0x08002a71   Thumb Code    62  stm32f10x_rcc.o(.text)
    RCC_HSEConfig                            0x08002aaf   Thumb Code    70  stm32f10x_rcc.o(.text)
    RCC_GetFlagStatus                        0x08002af5   Thumb Code    56  stm32f10x_rcc.o(.text)
    RCC_WaitForHSEStartUp                    0x08002b2d   Thumb Code    46  stm32f10x_rcc.o(.text)
    RCC_AdjustHSICalibrationValue            0x08002b5b   Thumb Code    20  stm32f10x_rcc.o(.text)
    RCC_HSICmd                               0x08002b6f   Thumb Code     6  stm32f10x_rcc.o(.text)
    RCC_PLLConfig                            0x08002b75   Thumb Code    24  stm32f10x_rcc.o(.text)
    RCC_PLLCmd                               0x08002b8d   Thumb Code     6  stm32f10x_rcc.o(.text)
    RCC_SYSCLKConfig                         0x08002b93   Thumb Code    18  stm32f10x_rcc.o(.text)
    RCC_GetSYSCLKSource                      0x08002ba5   Thumb Code    10  stm32f10x_rcc.o(.text)
    RCC_HCLKConfig                           0x08002baf   Thumb Code    18  stm32f10x_rcc.o(.text)
    RCC_PCLK1Config                          0x08002bc1   Thumb Code    18  stm32f10x_rcc.o(.text)
    RCC_PCLK2Config                          0x08002bd3   Thumb Code    20  stm32f10x_rcc.o(.text)
    RCC_ITConfig                             0x08002be7   Thumb Code    30  stm32f10x_rcc.o(.text)
    RCC_USBCLKConfig                         0x08002c05   Thumb Code     6  stm32f10x_rcc.o(.text)
    RCC_ADCCLKConfig                         0x08002c0b   Thumb Code    18  stm32f10x_rcc.o(.text)
    RCC_LSEConfig                            0x08002c1d   Thumb Code    44  stm32f10x_rcc.o(.text)
    RCC_LSICmd                               0x08002c49   Thumb Code     6  stm32f10x_rcc.o(.text)
    RCC_RTCCLKConfig                         0x08002c4f   Thumb Code    12  stm32f10x_rcc.o(.text)
    RCC_RTCCLKCmd                            0x08002c5b   Thumb Code     8  stm32f10x_rcc.o(.text)
    RCC_GetClocksFreq                        0x08002c63   Thumb Code   192  stm32f10x_rcc.o(.text)
    RCC_AHBPeriphClockCmd                    0x08002d23   Thumb Code    26  stm32f10x_rcc.o(.text)
    RCC_APB2PeriphClockCmd                   0x08002d3d   Thumb Code    26  stm32f10x_rcc.o(.text)
    RCC_APB1PeriphClockCmd                   0x08002d57   Thumb Code    26  stm32f10x_rcc.o(.text)
    RCC_APB2PeriphResetCmd                   0x08002d71   Thumb Code    26  stm32f10x_rcc.o(.text)
    RCC_APB1PeriphResetCmd                   0x08002d8b   Thumb Code    26  stm32f10x_rcc.o(.text)
    RCC_BackupResetCmd                       0x08002da5   Thumb Code     8  stm32f10x_rcc.o(.text)
    RCC_ClockSecuritySystemCmd               0x08002dad   Thumb Code     6  stm32f10x_rcc.o(.text)
    RCC_MCOConfig                            0x08002db3   Thumb Code     6  stm32f10x_rcc.o(.text)
    RCC_ClearFlag                            0x08002db9   Thumb Code    14  stm32f10x_rcc.o(.text)
    RCC_GetITStatus                          0x08002dc7   Thumb Code    20  stm32f10x_rcc.o(.text)
    RCC_ClearITPendingBit                    0x08002ddb   Thumb Code     6  stm32f10x_rcc.o(.text)
    TIM_DeInit                               0x08002e0d   Thumb Code   214  stm32f10x_tim.o(.text)
    TIM_TimeBaseInit                         0x08002ee3   Thumb Code    50  stm32f10x_tim.o(.text)
    TIM_OC1Init                              0x08002f15   Thumb Code   110  stm32f10x_tim.o(.text)
    TIM_OC2Init                              0x08002f83   Thumb Code   140  stm32f10x_tim.o(.text)
    TIM_OC3Init                              0x0800300f   Thumb Code   136  stm32f10x_tim.o(.text)
    TIM_OC4Init                              0x08003097   Thumb Code    98  stm32f10x_tim.o(.text)
    TIM_SetIC4Prescaler                      0x080030f9   Thumb Code    22  stm32f10x_tim.o(.text)
    TIM_SetIC3Prescaler                      0x08003155   Thumb Code    18  stm32f10x_tim.o(.text)
    TIM_SetIC2Prescaler                      0x080031a7   Thumb Code    22  stm32f10x_tim.o(.text)
    TIM_SetIC1Prescaler                      0x08003211   Thumb Code    18  stm32f10x_tim.o(.text)
    TIM_ICInit                               0x08003259   Thumb Code   110  stm32f10x_tim.o(.text)
    TIM_PWMIConfig                           0x080032c7   Thumb Code   124  stm32f10x_tim.o(.text)
    TIM_BDTRConfig                           0x08003343   Thumb Code    32  stm32f10x_tim.o(.text)
    TIM_TimeBaseStructInit                   0x08003363   Thumb Code    18  stm32f10x_tim.o(.text)
    TIM_OCStructInit                         0x08003375   Thumb Code    20  stm32f10x_tim.o(.text)
    TIM_ICStructInit                         0x08003389   Thumb Code    18  stm32f10x_tim.o(.text)
    TIM_BDTRStructInit                       0x0800339b   Thumb Code    18  stm32f10x_tim.o(.text)
    TIM_Cmd                                  0x080033ad   Thumb Code    24  stm32f10x_tim.o(.text)
    TIM_CtrlPWMOutputs                       0x080033c5   Thumb Code    30  stm32f10x_tim.o(.text)
    TIM_ITConfig                             0x080033e3   Thumb Code    24  stm32f10x_tim.o(.text)
    TIM_GenerateEvent                        0x080033fb   Thumb Code     4  stm32f10x_tim.o(.text)
    TIM_DMAConfig                            0x080033ff   Thumb Code    10  stm32f10x_tim.o(.text)
    TIM_DMACmd                               0x08003409   Thumb Code    24  stm32f10x_tim.o(.text)
    TIM_InternalClockConfig                  0x08003421   Thumb Code    12  stm32f10x_tim.o(.text)
    TIM_SelectInputTrigger                   0x0800342d   Thumb Code    18  stm32f10x_tim.o(.text)
    TIM_ITRxExternalClockConfig              0x0800343f   Thumb Code    24  stm32f10x_tim.o(.text)
    TIM_TIxExternalClockConfig               0x08003457   Thumb Code    62  stm32f10x_tim.o(.text)
    TIM_ETRConfig                            0x08003495   Thumb Code    26  stm32f10x_tim.o(.text)
    TIM_ETRClockMode1Config                  0x080034af   Thumb Code    54  stm32f10x_tim.o(.text)
    TIM_ETRClockMode2Config                  0x080034e5   Thumb Code    32  stm32f10x_tim.o(.text)
    TIM_PrescalerConfig                      0x08003505   Thumb Code     6  stm32f10x_tim.o(.text)
    TIM_CounterModeConfig                    0x0800350b   Thumb Code    18  stm32f10x_tim.o(.text)
    TIM_EncoderInterfaceConfig               0x0800351d   Thumb Code    62  stm32f10x_tim.o(.text)
    TIM_ForcedOC1Config                      0x0800355b   Thumb Code    18  stm32f10x_tim.o(.text)
    TIM_ForcedOC2Config                      0x0800356d   Thumb Code    22  stm32f10x_tim.o(.text)
    TIM_ForcedOC3Config                      0x08003583   Thumb Code    18  stm32f10x_tim.o(.text)
    TIM_ForcedOC4Config                      0x08003595   Thumb Code    22  stm32f10x_tim.o(.text)
    TIM_ARRPreloadConfig                     0x080035ab   Thumb Code    24  stm32f10x_tim.o(.text)
    TIM_SelectCOM                            0x080035c3   Thumb Code    24  stm32f10x_tim.o(.text)
    TIM_SelectCCDMA                          0x080035db   Thumb Code    24  stm32f10x_tim.o(.text)
    TIM_CCPreloadControl                     0x080035f3   Thumb Code    24  stm32f10x_tim.o(.text)
    TIM_OC1PreloadConfig                     0x0800360b   Thumb Code    18  stm32f10x_tim.o(.text)
    TIM_OC2PreloadConfig                     0x0800361d   Thumb Code    22  stm32f10x_tim.o(.text)
    TIM_OC3PreloadConfig                     0x08003633   Thumb Code    18  stm32f10x_tim.o(.text)
    TIM_OC4PreloadConfig                     0x08003645   Thumb Code    22  stm32f10x_tim.o(.text)
    TIM_OC1FastConfig                        0x0800365b   Thumb Code    18  stm32f10x_tim.o(.text)
    TIM_OC2FastConfig                        0x0800366d   Thumb Code    22  stm32f10x_tim.o(.text)
    TIM_OC3FastConfig                        0x08003683   Thumb Code    18  stm32f10x_tim.o(.text)
    TIM_OC4FastConfig                        0x08003695   Thumb Code    22  stm32f10x_tim.o(.text)
    TIM_ClearOC1Ref                          0x080036ab   Thumb Code    18  stm32f10x_tim.o(.text)
    TIM_ClearOC2Ref                          0x080036bd   Thumb Code    20  stm32f10x_tim.o(.text)
    TIM_ClearOC3Ref                          0x080036d1   Thumb Code    18  stm32f10x_tim.o(.text)
    TIM_ClearOC4Ref                          0x080036e3   Thumb Code    20  stm32f10x_tim.o(.text)
    TIM_OC1PolarityConfig                    0x080036f7   Thumb Code    18  stm32f10x_tim.o(.text)
    TIM_OC1NPolarityConfig                   0x08003709   Thumb Code    18  stm32f10x_tim.o(.text)
    TIM_OC2PolarityConfig                    0x0800371b   Thumb Code    22  stm32f10x_tim.o(.text)
    TIM_OC2NPolarityConfig                   0x08003731   Thumb Code    22  stm32f10x_tim.o(.text)
    TIM_OC3PolarityConfig                    0x08003747   Thumb Code    22  stm32f10x_tim.o(.text)
    TIM_OC3NPolarityConfig                   0x0800375d   Thumb Code    22  stm32f10x_tim.o(.text)
    TIM_OC4PolarityConfig                    0x08003773   Thumb Code    22  stm32f10x_tim.o(.text)
    TIM_CCxCmd                               0x08003789   Thumb Code    30  stm32f10x_tim.o(.text)
    TIM_CCxNCmd                              0x080037a7   Thumb Code    30  stm32f10x_tim.o(.text)
    TIM_SelectOCxM                           0x080037c5   Thumb Code   142  stm32f10x_tim.o(.text)
    TIM_UpdateDisableConfig                  0x08003853   Thumb Code    24  stm32f10x_tim.o(.text)
    TIM_UpdateRequestConfig                  0x0800386b   Thumb Code    24  stm32f10x_tim.o(.text)
    TIM_SelectHallSensor                     0x08003883   Thumb Code    24  stm32f10x_tim.o(.text)
    TIM_SelectOnePulseMode                   0x0800389b   Thumb Code    18  stm32f10x_tim.o(.text)
    TIM_SelectOutputTrigger                  0x080038ad   Thumb Code    18  stm32f10x_tim.o(.text)
    TIM_SelectSlaveMode                      0x080038bf   Thumb Code    18  stm32f10x_tim.o(.text)
    TIM_SelectMasterSlaveMode                0x080038d1   Thumb Code    18  stm32f10x_tim.o(.text)
    TIM_SetCounter                           0x080038e3   Thumb Code     4  stm32f10x_tim.o(.text)
    TIM_SetAutoreload                        0x080038e7   Thumb Code     4  stm32f10x_tim.o(.text)
    TIM_SetCompare1                          0x080038eb   Thumb Code     4  stm32f10x_tim.o(.text)
    TIM_SetCompare2                          0x080038ef   Thumb Code     4  stm32f10x_tim.o(.text)
    TIM_SetCompare3                          0x080038f3   Thumb Code     4  stm32f10x_tim.o(.text)
    TIM_SetCompare4                          0x080038f7   Thumb Code     6  stm32f10x_tim.o(.text)
    TIM_SetClockDivision                     0x080038fd   Thumb Code    14  stm32f10x_tim.o(.text)
    TIM_GetCapture1                          0x0800390b   Thumb Code     6  stm32f10x_tim.o(.text)
    TIM_GetCapture2                          0x08003911   Thumb Code     6  stm32f10x_tim.o(.text)
    TIM_GetCapture3                          0x08003917   Thumb Code     6  stm32f10x_tim.o(.text)
    TIM_GetCapture4                          0x0800391d   Thumb Code     8  stm32f10x_tim.o(.text)
    TIM_GetCounter                           0x08003925   Thumb Code     6  stm32f10x_tim.o(.text)
    TIM_GetPrescaler                         0x0800392b   Thumb Code     6  stm32f10x_tim.o(.text)
    TIM_GetFlagStatus                        0x08003931   Thumb Code    18  stm32f10x_tim.o(.text)
    TIM_ClearFlag                            0x08003943   Thumb Code     6  stm32f10x_tim.o(.text)
    TIM_GetITStatus                          0x08003949   Thumb Code    34  stm32f10x_tim.o(.text)
    TIM_ClearITPendingBit                    0x0800396b   Thumb Code     6  stm32f10x_tim.o(.text)
    SystemInit_ExtMemCtl                     0x08003971   Thumb Code     2  startup_stm32f10x_hd.o(.text)
    Reset_Handler                            0x08003973   Thumb Code    14  startup_stm32f10x_hd.o(.text)
    ADC1_2_IRQHandler                        0x08003993   Thumb Code     0  startup_stm32f10x_hd.o(.text)
    ADC3_IRQHandler                          0x08003993   Thumb Code     0  startup_stm32f10x_hd.o(.text)
    CAN1_RX1_IRQHandler                      0x08003993   Thumb Code     0  startup_stm32f10x_hd.o(.text)
    CAN1_SCE_IRQHandler                      0x08003993   Thumb Code     0  startup_stm32f10x_hd.o(.text)
    DMA1_Channel1_IRQHandler                 0x08003993   Thumb Code     0  startup_stm32f10x_hd.o(.text)
    DMA1_Channel2_IRQHandler                 0x08003993   Thumb Code     0  startup_stm32f10x_hd.o(.text)
    DMA1_Channel3_IRQHandler                 0x08003993   Thumb Code     0  startup_stm32f10x_hd.o(.text)
    DMA1_Channel4_IRQHandler                 0x08003993   Thumb Code     0  startup_stm32f10x_hd.o(.text)
    DMA1_Channel5_IRQHandler                 0x08003993   Thumb Code     0  startup_stm32f10x_hd.o(.text)
    DMA1_Channel6_IRQHandler                 0x08003993   Thumb Code     0  startup_stm32f10x_hd.o(.text)
    DMA1_Channel7_IRQHandler                 0x08003993   Thumb Code     0  startup_stm32f10x_hd.o(.text)
    DMA2_Channel1_IRQHandler                 0x08003993   Thumb Code     0  startup_stm32f10x_hd.o(.text)
    DMA2_Channel2_IRQHandler                 0x08003993   Thumb Code     0  startup_stm32f10x_hd.o(.text)
    DMA2_Channel3_IRQHandler                 0x08003993   Thumb Code     0  startup_stm32f10x_hd.o(.text)
    DMA2_Channel4_5_IRQHandler               0x08003993   Thumb Code     0  startup_stm32f10x_hd.o(.text)
    EXTI15_10_IRQHandler                     0x08003993   Thumb Code     0  startup_stm32f10x_hd.o(.text)
    EXTI4_IRQHandler                         0x08003993   Thumb Code     0  startup_stm32f10x_hd.o(.text)
    EXTI9_5_IRQHandler                       0x08003993   Thumb Code     0  startup_stm32f10x_hd.o(.text)
    FLASH_IRQHandler                         0x08003993   Thumb Code     0  startup_stm32f10x_hd.o(.text)
    FSMC_IRQHandler                          0x08003993   Thumb Code     0  startup_stm32f10x_hd.o(.text)
    I2C1_ER_IRQHandler                       0x08003993   Thumb Code     0  startup_stm32f10x_hd.o(.text)
    I2C1_EV_IRQHandler                       0x08003993   Thumb Code     0  startup_stm32f10x_hd.o(.text)
    I2C2_ER_IRQHandler                       0x08003993   Thumb Code     0  startup_stm32f10x_hd.o(.text)
    I2C2_EV_IRQHandler                       0x08003993   Thumb Code     0  startup_stm32f10x_hd.o(.text)
    PVD_IRQHandler                           0x08003993   Thumb Code     0  startup_stm32f10x_hd.o(.text)
    RCC_IRQHandler                           0x08003993   Thumb Code     0  startup_stm32f10x_hd.o(.text)
    RTCAlarm_IRQHandler                      0x08003993   Thumb Code     0  startup_stm32f10x_hd.o(.text)
    RTC_IRQHandler                           0x08003993   Thumb Code     0  startup_stm32f10x_hd.o(.text)
    SDIO_IRQHandler                          0x08003993   Thumb Code     0  startup_stm32f10x_hd.o(.text)
    SPI1_IRQHandler                          0x08003993   Thumb Code     0  startup_stm32f10x_hd.o(.text)
    SPI2_IRQHandler                          0x08003993   Thumb Code     0  startup_stm32f10x_hd.o(.text)
    SPI3_IRQHandler                          0x08003993   Thumb Code     0  startup_stm32f10x_hd.o(.text)
    TAMPER_IRQHandler                        0x08003993   Thumb Code     0  startup_stm32f10x_hd.o(.text)
    TIM1_BRK_IRQHandler                      0x08003993   Thumb Code     0  startup_stm32f10x_hd.o(.text)
    TIM1_CC_IRQHandler                       0x08003993   Thumb Code     0  startup_stm32f10x_hd.o(.text)
    TIM1_TRG_COM_IRQHandler                  0x08003993   Thumb Code     0  startup_stm32f10x_hd.o(.text)
    TIM1_UP_IRQHandler                       0x08003993   Thumb Code     0  startup_stm32f10x_hd.o(.text)
    TIM6_IRQHandler                          0x08003993   Thumb Code     0  startup_stm32f10x_hd.o(.text)
    TIM7_IRQHandler                          0x08003993   Thumb Code     0  startup_stm32f10x_hd.o(.text)
    TIM8_BRK_IRQHandler                      0x08003993   Thumb Code     0  startup_stm32f10x_hd.o(.text)
    TIM8_CC_IRQHandler                       0x08003993   Thumb Code     0  startup_stm32f10x_hd.o(.text)
    TIM8_TRG_COM_IRQHandler                  0x08003993   Thumb Code     0  startup_stm32f10x_hd.o(.text)
    TIM8_UP_IRQHandler                       0x08003993   Thumb Code     0  startup_stm32f10x_hd.o(.text)
    UART4_IRQHandler                         0x08003993   Thumb Code     0  startup_stm32f10x_hd.o(.text)
    UART5_IRQHandler                         0x08003993   Thumb Code     0  startup_stm32f10x_hd.o(.text)
    USART1_IRQHandler                        0x08003993   Thumb Code     0  startup_stm32f10x_hd.o(.text)
    USART2_IRQHandler                        0x08003993   Thumb Code     0  startup_stm32f10x_hd.o(.text)
    USART3_IRQHandler                        0x08003993   Thumb Code     0  startup_stm32f10x_hd.o(.text)
    USBWakeUp_IRQHandler                     0x08003993   Thumb Code     0  startup_stm32f10x_hd.o(.text)
    USB_HP_CAN1_TX_IRQHandler                0x08003993   Thumb Code     0  startup_stm32f10x_hd.o(.text)
    USB_LP_CAN1_RX0_IRQHandler               0x08003993   Thumb Code     0  startup_stm32f10x_hd.o(.text)
    WWDG_IRQHandler                          0x08003993   Thumb Code     0  startup_stm32f10x_hd.o(.text)
    __aeabi_fmul                             0x080039a1   Thumb Code   108  fmul.o(.text)
    __aeabi_fdiv                             0x08003a0d   Thumb Code   128  fdiv.o(.text)
    __aeabi_dmul                             0x08003a8d   Thumb Code   224  dmul.o(.text)
    __aeabi_ddiv                             0x08003b6d   Thumb Code   222  ddiv.o(.text)
    __aeabi_i2f                              0x08003c4b   Thumb Code    18  fflti.o(.text)
    __aeabi_ui2f                             0x08003c5d   Thumb Code    10  ffltui.o(.text)
    __aeabi_ui2d                             0x08003c67   Thumb Code    26  dfltui.o(.text)
    __aeabi_f2uiz                            0x08003c81   Thumb Code    40  ffixui.o(.text)
    __aeabi_d2iz                             0x08003ca9   Thumb Code    62  dfixi.o(.text)
    __aeabi_llsr                             0x08003ce7   Thumb Code    32  llushr.o(.text)
    _ll_ushift_r                             0x08003ce7   Thumb Code     0  llushr.o(.text)
    __I$use$fp                               0x08003d07   Thumb Code     0  iusefp.o(.text)
    _float_round                             0x08003d07   Thumb Code    18  fepilogue.o(.text)
    _float_epilogue                          0x08003d19   Thumb Code    90  fepilogue.o(.text)
    _double_round                            0x08003d73   Thumb Code    26  depilogue.o(.text)
    _double_epilogue                         0x08003d8d   Thumb Code   164  depilogue.o(.text)
    __scatterload                            0x08003e31   Thumb Code    28  init.o(.text)
    __scatterload_rt2                        0x08003e31   Thumb Code     0  init.o(.text)
    __aeabi_llsl                             0x08003e55   Thumb Code    30  llshl.o(.text)
    _ll_shift_l                              0x08003e55   Thumb Code     0  llshl.o(.text)
    __decompress                             0x08003e73   Thumb Code     0  __dczerorl2.o(.text)
    __decompress1                            0x08003e73   Thumb Code    92  __dczerorl2.o(.text)
    __scatterload_copy                       0x08003ecf   Thumb Code    14  handlers.o(i.__scatterload_copy)
    __scatterload_null                       0x08003edd   Thumb Code     2  handlers.o(i.__scatterload_null)
    __scatterload_zeroinit                   0x08003edf   Thumb Code    14  handlers.o(i.__scatterload_zeroinit)
    SystemFrequency                          0x08003eec   Data           4  system_stm32f10x.o(.constdata)
    SystemFrequency_SysClk                   0x08003ef0   Data           4  system_stm32f10x.o(.constdata)
    SystemFrequency_AHBClk                   0x08003ef4   Data           4  system_stm32f10x.o(.constdata)
    SystemFrequency_APB1Clk                  0x08003ef8   Data           4  system_stm32f10x.o(.constdata)
    SystemFrequency_APB2Clk                  0x08003efc   Data           4  system_stm32f10x.o(.constdata)
    Region$$Table$$Base                      0x08003f00   Number         0  anon$$obj.o(Region$$Table)
    Region$$Table$$Limit                     0x08003f20   Number         0  anon$$obj.o(Region$$Table)
    steps                                    0x20000000   Data          16  main.o(.data)
    accel                                    0x20000010   Data          16  main.o(.data)
    decel                                    0x20000020   Data          16  main.o(.data)
    speed                                    0x20000030   Data          16  main.o(.data)
    stpdecel                                 0x20000040   Data          16  main.o(.data)
    addr485                                  0x20000050   Data           1  main.o(.data)
    LmtSnsPos                                0x20000051   Data           4  main.o(.data)
    LmtSnsNeg                                0x20000055   Data           4  main.o(.data)
    HomeSns                                  0x20000059   Data           4  main.o(.data)
    SoftLmtPos                               0x20000060   Data          16  main.o(.data)
    SoftLmtNeg                               0x20000070   Data          16  main.o(.data)
    AxisPulsePin                             0x20000080   Data           8  main.o(.data)
    AxisDirPin                               0x20000088   Data           8  main.o(.data)
    LmtPosPin                                0x20000090   Data           8  main.o(.data)
    LmtNegPin                                0x20000098   Data           8  main.o(.data)
    HomePin                                  0x200000a0   Data           8  main.o(.data)
    AddrPin                                  0x200000a8   Data           8  main.o(.data)
    AxisLmtPosPort                           0x200000b0   Data          16  main.o(.data)
    AxisLmtNegPort                           0x200000c0   Data          16  main.o(.data)
    AxisPulsePort                            0x200000d0   Data          16  main.o(.data)
    AxisDirPort                              0x200000e0   Data          16  main.o(.data)
    HomePort                                 0x200000f0   Data          16  main.o(.data)
    AddrPort                                 0x20000100   Data          16  main.o(.data)
    AxisEXTILine                             0x20000110   Data          16  main.o(.data)
    AxisEXTIPinSource                        0x20000120   Data           4  main.o(.data)
    bLmtPos                                  0x20000124   Data           4  main.o(.data)
    bLmtNeg                                  0x20000128   Data           4  main.o(.data)
    bStopCmd                                 0x2000012c   Data           4  main.o(.data)
    bEmgStopping                             0x20000130   Data           4  main.o(.data)
    bEnableSoftLmt                           0x20000134   Data           4  main.o(.data)
    bHomeOK                                  0x20000138   Data           4  main.o(.data)
    bZeroCapture                             0x2000013c   Data           4  main.o(.data)
    ZeroDir                                  0x20000140   Data          16  main.o(.data)
    ZeroOffset                               0x20000150   Data          16  main.o(.data)
    ZeroBackDistance                         0x20000160   Data          16  main.o(.data)
    ZeroStep                                 0x20000170   Data           4  main.o(.data)
    HomeFastSpeed                            0x20000174   Data          16  main.o(.data)
    HomeSlowSpeed                            0x20000184   Data          16  main.o(.data)
    MotionStatus                             0x20000194   Data           4  main.o(.data)
    GPIO_InitStructure                       0x200001ca   Data           4  main.o(.data)
    bDataOK                                  0x200001ce   Data           1  main.o(.data)
    EXTI_InitStructure                       0x200001d0   Data           8  main.o(.data)
    RxCounter                                0x200001d8   Data           1  main.o(.data)
    position                                 0x200001f0   Data          16  main.o(.bss)
    HomePos                                  0x20000200   Data          16  main.o(.bss)
    srd                                      0x20000210   Data          96  main.o(.bss)
    USART_InitStructure                      0x20000270   Data          16  main.o(.bss)
    RxBuffer                                 0x20000280   Data          12  main.o(.bss)
    __initial_sp                             0x20000490   Data           0  startup_stm32f10x_hd.o(STACK)



==============================================================================

Memory Map of the image

  Image Entry point : 0x08000131

  Load Region LR_IROM1 (Base: 0x08000000, Size: 0x00004110, Max: 0x00040000, ABSOLUTE, COMPRESSED[0x00003f9c])

    Execution Region ER_IROM1 (Base: 0x08000000, Size: 0x00003f20, Max: 0x00040000, ABSOLUTE)

    Base Addr    Size         Type   Attr      Idx    E Section Name        Object

    0x08000000   0x00000130   Data   RO          289    RESET               startup_stm32f10x_hd.o
    0x08000130   0x00000000   Code   RO          294  * .ARM.Collect$$$$00000000  mc_w.l(entry.o)
    0x08000130   0x00000004   Code   RO          315    .ARM.Collect$$$$00000001  mc_w.l(entry2.o)
    0x08000134   0x00000004   Code   RO          318    .ARM.Collect$$$$00000004  mc_w.l(entry5.o)
    0x08000138   0x00000000   Code   RO          320    .ARM.Collect$$$$00000008  mc_w.l(entry7b.o)
    0x08000138   0x00000008   Code   RO          321    .ARM.Collect$$$$00000009  mc_w.l(entry8.o)
    0x08000140   0x00000004   Code   RO          316    .ARM.Collect$$$$00002712  mc_w.l(entry2.o)
    0x08000144   0x0000206c   Code   RO            1    .text               main.o
    0x080021b0   0x0000001a   Code   RO           63    .text               stm32f10x_it.o
    0x080021ca   0x00000002   PAD
    0x080021cc   0x000000dc   Code   RO          109    .text               misc.o
    0x080022a8   0x00000378   Code   RO          124    .text               stm32f10x_usart.o
    0x08002620   0x00000124   Code   RO          166    .text               stm32f10x_exti.o
    0x08002744   0x0000032c   Code   RO          190    .text               stm32f10x_gpio.o
    0x08002a70   0x0000039c   Code   RO          202    .text               stm32f10x_rcc.o
    0x08002e0c   0x00000b64   Code   RO          231    .text               stm32f10x_tim.o
    0x08003970   0x00000030   Code   RO          290    .text               startup_stm32f10x_hd.o
    0x080039a0   0x0000006c   Code   RO          297    .text               mf_w.l(fmul.o)
    0x08003a0c   0x00000080   Code   RO          299    .text               mf_w.l(fdiv.o)
    0x08003a8c   0x000000e0   Code   RO          301    .text               mf_w.l(dmul.o)
    0x08003b6c   0x000000de   Code   RO          303    .text               mf_w.l(ddiv.o)
    0x08003c4a   0x00000012   Code   RO          305    .text               mf_w.l(fflti.o)
    0x08003c5c   0x0000000a   Code   RO          307    .text               mf_w.l(ffltui.o)
    0x08003c66   0x0000001a   Code   RO          309    .text               mf_w.l(dfltui.o)
    0x08003c80   0x00000028   Code   RO          311    .text               mf_w.l(ffixui.o)
    0x08003ca8   0x0000003e   Code   RO          313    .text               mf_w.l(dfixi.o)
    0x08003ce6   0x00000020   Code   RO          322    .text               mc_w.l(llushr.o)
    0x08003d06   0x00000000   Code   RO          324    .text               mc_w.l(iusefp.o)
    0x08003d06   0x0000006c   Code   RO          325    .text               mf_w.l(fepilogue.o)
    0x08003d72   0x000000be   Code   RO          327    .text               mf_w.l(depilogue.o)
    0x08003e30   0x00000024   Code   RO          329    .text               mc_w.l(init.o)
    0x08003e54   0x0000001e   Code   RO          331    .text               mc_w.l(llshl.o)
    0x08003e72   0x0000005c   Code   RO          341    .text               mc_w.l(__dczerorl2.o)
    0x08003ece   0x0000000e   Code   RO          335    i.__scatterload_copy  mc_w.l(handlers.o)
    0x08003edc   0x00000002   Code   RO          336    i.__scatterload_null  mc_w.l(handlers.o)
    0x08003ede   0x0000000e   Code   RO          337    i.__scatterload_zeroinit  mc_w.l(handlers.o)
    0x08003eec   0x00000014   Data   RO          259    .constdata          system_stm32f10x.o
    0x08003f00   0x00000020   Data   RO          333    Region$$Table       anon$$obj.o


    Execution Region RW_IRAM1 (Base: 0x20000000, Size: 0x00000490, Max: 0x0000c000, ABSOLUTE, COMPRESSED[0x0000007c])

    Base Addr    Size         Type   Attr      Idx    E Section Name        Object

    0x20000000   0x000001d9   Data   RW            3    .data               main.o
    0x200001d9   0x00000014   Data   RW          203    .data               stm32f10x_rcc.o
    0x200001ed   0x00000003   PAD
    0x200001f0   0x0000009c   Zero   RW            2    .bss                main.o
    0x2000028c   0x00000004   PAD
    0x20000290   0x00000200   Zero   RW          287    STACK               startup_stm32f10x_hd.o


==============================================================================

Image component sizes


      Code (inc. data)   RO Data    RW Data    ZI Data      Debug   Object Name

         0          0          0          0          0         32   core_cm3.o
      8300        666          0        473        156     257357   main.o
       220         20          0          0          0       3337   misc.o
        48         12        304          0        512        792   startup_stm32f10x_hd.o
       292         10          0          0          0       2127   stm32f10x_exti.o
       812         18          0          0          0       5167   stm32f10x_gpio.o
        26          0          0          0          0     246434   stm32f10x_it.o
       924         44          0         20          0       8764   stm32f10x_rcc.o
      2916         16          0          0          0      24556   stm32f10x_tim.o
       888         14          0          0          0       7823   stm32f10x_usart.o
         0          0         20          0          0        684   system_stm32f10x.o

    ----------------------------------------------------------------------
     14428        800        356        496        672     557073   Object Totals
         0          0         32          0          0          0   (incl. Generated)
         2          0          0          3          4          0   (incl. Padding)

    ----------------------------------------------------------------------

      Code (inc. data)   RO Data    RW Data    ZI Data      Debug   Library Member Name

        92          0          0          0          0          0   __dczerorl2.o
         0          0          0          0          0          0   entry.o
         8          4          0          0          0          0   entry2.o
         4          0          0          0          0          0   entry5.o
         0          0          0          0          0          0   entry7b.o
         8          4          0          0          0          0   entry8.o
        30          0          0          0          0          0   handlers.o
        36          8          0          0          0         68   init.o
         0          0          0          0          0          0   iusefp.o
        30          0          0          0          0         68   llshl.o
        32          0          0          0          0         68   llushr.o
       222          0          0          0          0        100   ddiv.o
       190          0          0          0          0        176   depilogue.o
        62          0          0          0          0         80   dfixi.o
        26          0          0          0          0         76   dfltui.o
       224          0          0          0          0         96   dmul.o
       128          0          0          0          0         88   fdiv.o
       108          0          0          0          0        168   fepilogue.o
        40          0          0          0          0         68   ffixui.o
        18          0          0          0          0         68   fflti.o
        10          0          0          0          0         68   ffltui.o
       108          0          0          0          0         76   fmul.o

    ----------------------------------------------------------------------
      1376         16          0          0          0       1268   Library Totals
         0          0          0          0          0          0   (incl. Padding)

    ----------------------------------------------------------------------

      Code (inc. data)   RO Data    RW Data    ZI Data      Debug   Library Name

       240         16          0          0          0        204   mc_w.l
      1136          0          0          0          0       1064   mf_w.l

    ----------------------------------------------------------------------
      1376         16          0          0          0       1268   Library Totals

    ----------------------------------------------------------------------

==============================================================================


      Code (inc. data)   RO Data    RW Data    ZI Data      Debug   

     15804        816        356        496        672     556729   Grand Totals
     15804        816        356        124        672     556729   ELF Image Totals (compressed)
     15804        816        356        124          0          0   ROM Totals

==============================================================================

    Total RO  Size (Code + RO Data)                16160 (  15.78kB)
    Total RW  Size (RW Data + ZI Data)              1168 (   1.14kB)
    Total ROM Size (Code + RO Data + RW Data)      16284 (  15.90kB)

==============================================================================

